{
  "_format": "hh-sol-artifact-1",
  "contractName": "TinaDAO",
  "sourceName": "contracts/TinaDAO.sol",
  "abi": [
    {
      "inputs": [
        {
          "internalType": "string",
          "name": "_name",
          "type": "string"
        },
        {
          "internalType": "string",
          "name": "_symbol",
          "type": "string"
        },
        {
          "components": [
            {
              "internalType": "uint8",
              "name": "stageId",
              "type": "uint8"
            },
            {
              "internalType": "uint16",
              "name": "maxSupply",
              "type": "uint16"
            },
            {
              "internalType": "uint32",
              "name": "startTime",
              "type": "uint32"
            },
            {
              "internalType": "uint32",
              "name": "endTime",
              "type": "uint32"
            },
            {
              "internalType": "uint160",
              "name": "mintPrice",
              "type": "uint160"
            }
          ],
          "internalType": "struct TinaDAO.StageInfo",
          "name": "_initStageInfo",
          "type": "tuple"
        },
        {
          "internalType": "string",
          "name": "_baseTokenURI",
          "type": "string"
        }
      ],
      "stateMutability": "nonpayable",
      "type": "constructor"
    },
    {
      "anonymous": false,
      "inputs": [
        {
          "indexed": true,
          "internalType": "address",
          "name": "owner",
          "type": "address"
        },
        {
          "indexed": true,
          "internalType": "address",
          "name": "approved",
          "type": "address"
        },
        {
          "indexed": true,
          "internalType": "uint256",
          "name": "tokenId",
          "type": "uint256"
        }
      ],
      "name": "Approval",
      "type": "event"
    },
    {
      "anonymous": false,
      "inputs": [
        {
          "indexed": true,
          "internalType": "address",
          "name": "owner",
          "type": "address"
        },
        {
          "indexed": true,
          "internalType": "address",
          "name": "operator",
          "type": "address"
        },
        {
          "indexed": false,
          "internalType": "bool",
          "name": "approved",
          "type": "bool"
        }
      ],
      "name": "ApprovalForAll",
      "type": "event"
    },
    {
      "anonymous": false,
      "inputs": [
        {
          "indexed": true,
          "internalType": "address",
          "name": "previousOwner",
          "type": "address"
        },
        {
          "indexed": true,
          "internalType": "address",
          "name": "newOwner",
          "type": "address"
        }
      ],
      "name": "OwnershipTransferred",
      "type": "event"
    },
    {
      "anonymous": false,
      "inputs": [
        {
          "indexed": true,
          "internalType": "address",
          "name": "from",
          "type": "address"
        },
        {
          "indexed": true,
          "internalType": "address",
          "name": "to",
          "type": "address"
        },
        {
          "indexed": true,
          "internalType": "uint256",
          "name": "tokenId",
          "type": "uint256"
        }
      ],
      "name": "Transfer",
      "type": "event"
    },
    {
      "inputs": [
        {
          "internalType": "address",
          "name": "",
          "type": "address"
        }
      ],
      "name": "_mintedCounts",
      "outputs": [
        {
          "internalType": "uint256",
          "name": "",
          "type": "uint256"
        }
      ],
      "stateMutability": "view",
      "type": "function"
    },
    {
      "inputs": [
        {
          "internalType": "address",
          "name": "to",
          "type": "address"
        },
        {
          "internalType": "uint256",
          "name": "tokenId",
          "type": "uint256"
        }
      ],
      "name": "approve",
      "outputs": [],
      "stateMutability": "nonpayable",
      "type": "function"
    },
    {
      "inputs": [
        {
          "internalType": "address",
          "name": "owner",
          "type": "address"
        }
      ],
      "name": "balanceOf",
      "outputs": [
        {
          "internalType": "uint256",
          "name": "",
          "type": "uint256"
        }
      ],
      "stateMutability": "view",
      "type": "function"
    },
    {
      "inputs": [],
      "name": "contractURI",
      "outputs": [
        {
          "internalType": "string",
          "name": "",
          "type": "string"
        }
      ],
      "stateMutability": "view",
      "type": "function"
    },
    {
      "inputs": [
        {
          "internalType": "uint256",
          "name": "tokenId",
          "type": "uint256"
        }
      ],
      "name": "getApproved",
      "outputs": [
        {
          "internalType": "address",
          "name": "",
          "type": "address"
        }
      ],
      "stateMutability": "view",
      "type": "function"
    },
    {
      "inputs": [
        {
          "internalType": "address",
          "name": "owner",
          "type": "address"
        },
        {
          "internalType": "address",
          "name": "operator",
          "type": "address"
        }
      ],
      "name": "isApprovedForAll",
      "outputs": [
        {
          "internalType": "bool",
          "name": "",
          "type": "bool"
        }
      ],
      "stateMutability": "view",
      "type": "function"
    },
    {
      "inputs": [],
      "name": "name",
      "outputs": [
        {
          "internalType": "string",
          "name": "",
          "type": "string"
        }
      ],
      "stateMutability": "view",
      "type": "function"
    },
    {
      "inputs": [
        {
          "components": [
            {
              "internalType": "uint8",
              "name": "stageId",
              "type": "uint8"
            },
            {
              "internalType": "uint16",
              "name": "maxSupply",
              "type": "uint16"
            },
            {
              "internalType": "uint32",
              "name": "startTime",
              "type": "uint32"
            },
            {
              "internalType": "uint32",
              "name": "endTime",
              "type": "uint32"
            },
            {
              "internalType": "uint160",
              "name": "mintPrice",
              "type": "uint160"
            }
          ],
          "internalType": "struct TinaDAO.StageInfo",
          "name": "_stageInfo",
          "type": "tuple"
        }
      ],
      "name": "nextStage",
      "outputs": [],
      "stateMutability": "nonpayable",
      "type": "function"
    },
    {
      "inputs": [],
      "name": "owner",
      "outputs": [
        {
          "internalType": "address",
          "name": "",
          "type": "address"
        }
      ],
      "stateMutability": "view",
      "type": "function"
    },
    {
      "inputs": [
        {
          "internalType": "uint256",
          "name": "tokenId",
          "type": "uint256"
        }
      ],
      "name": "ownerOf",
      "outputs": [
        {
          "internalType": "address",
          "name": "",
          "type": "address"
        }
      ],
      "stateMutability": "view",
      "type": "function"
    },
    {
      "inputs": [
        {
          "internalType": "uint8",
          "name": "amount",
          "type": "uint8"
        }
      ],
      "name": "publicMint",
      "outputs": [],
      "stateMutability": "payable",
      "type": "function"
    },
    {
      "inputs": [],
      "name": "renounceOwnership",
      "outputs": [],
      "stateMutability": "nonpayable",
      "type": "function"
    },
    {
      "inputs": [
        {
          "internalType": "address",
          "name": "to",
          "type": "address"
        },
        {
          "internalType": "uint256",
          "name": "amount",
          "type": "uint256"
        }
      ],
      "name": "reserve",
      "outputs": [],
      "stateMutability": "nonpayable",
      "type": "function"
    },
    {
      "inputs": [
        {
          "internalType": "address",
          "name": "from",
          "type": "address"
        },
        {
          "internalType": "address",
          "name": "to",
          "type": "address"
        },
        {
          "internalType": "uint256",
          "name": "tokenId",
          "type": "uint256"
        }
      ],
      "name": "safeTransferFrom",
      "outputs": [],
      "stateMutability": "nonpayable",
      "type": "function"
    },
    {
      "inputs": [
        {
          "internalType": "address",
          "name": "from",
          "type": "address"
        },
        {
          "internalType": "address",
          "name": "to",
          "type": "address"
        },
        {
          "internalType": "uint256",
          "name": "tokenId",
          "type": "uint256"
        },
        {
          "internalType": "bytes",
          "name": "_data",
          "type": "bytes"
        }
      ],
      "name": "safeTransferFrom",
      "outputs": [],
      "stateMutability": "nonpayable",
      "type": "function"
    },
    {
      "inputs": [
        {
          "internalType": "address",
          "name": "operator",
          "type": "address"
        },
        {
          "internalType": "bool",
          "name": "approved",
          "type": "bool"
        }
      ],
      "name": "setApprovalForAll",
      "outputs": [],
      "stateMutability": "nonpayable",
      "type": "function"
    },
    {
      "inputs": [
        {
          "internalType": "string",
          "name": "baseURI",
          "type": "string"
        }
      ],
      "name": "setBaseURI",
      "outputs": [],
      "stateMutability": "nonpayable",
      "type": "function"
    },
    {
      "inputs": [
        {
          "internalType": "string",
          "name": "_newURI",
          "type": "string"
        }
      ],
      "name": "setNewContractURI",
      "outputs": [],
      "stateMutability": "nonpayable",
      "type": "function"
    },
    {
      "inputs": [],
      "name": "stageInfo",
      "outputs": [
        {
          "internalType": "uint8",
          "name": "stageId",
          "type": "uint8"
        },
        {
          "internalType": "uint16",
          "name": "maxSupply",
          "type": "uint16"
        },
        {
          "internalType": "uint32",
          "name": "startTime",
          "type": "uint32"
        },
        {
          "internalType": "uint32",
          "name": "endTime",
          "type": "uint32"
        },
        {
          "internalType": "uint160",
          "name": "mintPrice",
          "type": "uint160"
        }
      ],
      "stateMutability": "view",
      "type": "function"
    },
    {
      "inputs": [
        {
          "internalType": "bytes4",
          "name": "interfaceId",
          "type": "bytes4"
        }
      ],
      "name": "supportsInterface",
      "outputs": [
        {
          "internalType": "bool",
          "name": "",
          "type": "bool"
        }
      ],
      "stateMutability": "view",
      "type": "function"
    },
    {
      "inputs": [],
      "name": "symbol",
      "outputs": [
        {
          "internalType": "string",
          "name": "",
          "type": "string"
        }
      ],
      "stateMutability": "view",
      "type": "function"
    },
    {
      "inputs": [
        {
          "internalType": "uint256",
          "name": "index",
          "type": "uint256"
        }
      ],
      "name": "tokenByIndex",
      "outputs": [
        {
          "internalType": "uint256",
          "name": "",
          "type": "uint256"
        }
      ],
      "stateMutability": "view",
      "type": "function"
    },
    {
      "inputs": [
        {
          "internalType": "address",
          "name": "owner",
          "type": "address"
        },
        {
          "internalType": "uint256",
          "name": "index",
          "type": "uint256"
        }
      ],
      "name": "tokenOfOwnerByIndex",
      "outputs": [
        {
          "internalType": "uint256",
          "name": "",
          "type": "uint256"
        }
      ],
      "stateMutability": "view",
      "type": "function"
    },
    {
      "inputs": [
        {
          "internalType": "uint256",
          "name": "tokenId",
          "type": "uint256"
        }
      ],
      "name": "tokenURI",
      "outputs": [
        {
          "internalType": "string",
          "name": "",
          "type": "string"
        }
      ],
      "stateMutability": "view",
      "type": "function"
    },
    {
      "inputs": [],
      "name": "totalSupply",
      "outputs": [
        {
          "internalType": "uint256",
          "name": "",
          "type": "uint256"
        }
      ],
      "stateMutability": "view",
      "type": "function"
    },
    {
      "inputs": [
        {
          "internalType": "address",
          "name": "from",
          "type": "address"
        },
        {
          "internalType": "address",
          "name": "to",
          "type": "address"
        },
        {
          "internalType": "uint256",
          "name": "tokenId",
          "type": "uint256"
        }
      ],
      "name": "transferFrom",
      "outputs": [],
      "stateMutability": "nonpayable",
      "type": "function"
    },
    {
      "inputs": [
        {
          "internalType": "address",
          "name": "newOwner",
          "type": "address"
        }
      ],
      "name": "transferOwnership",
      "outputs": [],
      "stateMutability": "nonpayable",
      "type": "function"
    },
    {
      "inputs": [
        {
          "components": [
            {
              "internalType": "address",
              "name": "redeemer",
              "type": "address"
            },
            {
              "internalType": "uint8",
              "name": "stageId",
              "type": "uint8"
            },
            {
              "internalType": "uint8",
              "name": "amount",
              "type": "uint8"
            }
          ],
          "internalType": "struct TinaDAO.NFTVoucher",
          "name": "voucher",
          "type": "tuple"
        },
        {
          "internalType": "bytes",
          "name": "signature",
          "type": "bytes"
        },
        {
          "internalType": "uint8",
          "name": "amount",
          "type": "uint8"
        }
      ],
      "name": "whitelistMint",
      "outputs": [],
      "stateMutability": "payable",
      "type": "function"
    },
    {
      "inputs": [],
      "name": "withdraw",
      "outputs": [],
      "stateMutability": "nonpayable",
      "type": "function"
    }
  ],
  "bytecode": "0x61014060405260006001556040518060600160405280603f8152602001620067d8603f9139600a90805190602001906200003b929190620003bb565b503480156200004957600080fd5b50604051620068173803806200681783398181016040528101906200006f9190620005ce565b836040518060400160405280600181526020017f31000000000000000000000000000000000000000000000000000000000000008152508585620000c8620000bc620002b360201b60201c565b620002bb60201b60201c565b8160029080519060200190620000e0929190620003bb565b508060039080519060200190620000f9929190620003bb565b50505060008280519060200120905060008280519060200120905060007f8b73c3c69bb8fe3d512ecc4cf759cc79239f7b179b0ffacaa9a75d522b39400f90508260e081815250508161010081815250504660a08181525050620001658184846200037f60201b60201c565b608081815250503073ffffffffffffffffffffffffffffffffffffffff1660c08173ffffffffffffffffffffffffffffffffffffffff1660601b81525050806101208181525050505050505081600860008201518160000160006101000a81548160ff021916908360ff16021790555060208201518160000160016101000a81548161ffff021916908361ffff16021790555060408201518160000160036101000a81548163ffffffff021916908363ffffffff16021790555060608201518160000160076101000a81548163ffffffff021916908363ffffffff160217905550608082015181600001600b6101000a81548173ffffffffffffffffffffffffffffffffffffffff021916908373ffffffffffffffffffffffffffffffffffffffff1602179055509050508060099080519060200190620002a8929190620003bb565b505050505062000961565b600033905090565b60008060009054906101000a900473ffffffffffffffffffffffffffffffffffffffff169050816000806101000a81548173ffffffffffffffffffffffffffffffffffffffff021916908373ffffffffffffffffffffffffffffffffffffffff1602179055508173ffffffffffffffffffffffffffffffffffffffff168173ffffffffffffffffffffffffffffffffffffffff167f8be0079c531659141344cd1fd0a4f28419497f9722a3daafe3b4186f6b6457e060405160405180910390a35050565b600083838346306040516020016200039c959493929190620006b9565b6040516020818303038152906040528051906020012090509392505050565b828054620003c9906200081e565b90600052602060002090601f016020900481019282620003ed576000855562000439565b82601f106200040857805160ff191683800117855562000439565b8280016001018555821562000439579182015b82811115620004385782518255916020019190600101906200041b565b5b5090506200044891906200044c565b5090565b5b80821115620004675760008160009055506001016200044d565b5090565b6000620004826200047c846200073f565b62000716565b9050828152602081018484840111156200049b57600080fd5b620004a8848285620007e8565b509392505050565b600082601f830112620004c257600080fd5b8151620004d48482602086016200046b565b91505092915050565b600060a08284031215620004f057600080fd5b620004fc60a062000716565b905060006200050e84828501620005b7565b6000830152506020620005248482850162000589565b60208301525060406200053a84828501620005a0565b60408301525060606200055084828501620005a0565b6060830152506080620005668482850162000572565b60808301525092915050565b600081519050620005838162000913565b92915050565b6000815190506200059a81620008f9565b92915050565b600081519050620005b1816200092d565b92915050565b600081519050620005c88162000947565b92915050565b6000806000806101008587031215620005e657600080fd5b600085015167ffffffffffffffff8111156200060157600080fd5b6200060f87828801620004b0565b945050602085015167ffffffffffffffff8111156200062d57600080fd5b6200063b87828801620004b0565b93505060406200064e87828801620004dd565b92505060e085015167ffffffffffffffff8111156200066c57600080fd5b6200067a87828801620004b0565b91505092959194509250565b620006918162000775565b82525050565b620006a28162000789565b82525050565b620006b381620007c1565b82525050565b600060a082019050620006d0600083018862000697565b620006df602083018762000697565b620006ee604083018662000697565b620006fd6060830185620006a8565b6200070c608083018462000686565b9695505050505050565b60006200072262000735565b905062000730828262000854565b919050565b6000604051905090565b600067ffffffffffffffff8211156200075d576200075c620008b9565b5b6200076882620008e8565b9050602081019050919050565b60006200078282620007a1565b9050919050565b6000819050919050565b600061ffff82169050919050565b600073ffffffffffffffffffffffffffffffffffffffff82169050919050565b6000819050919050565b600063ffffffff82169050919050565b600060ff82169050919050565b60005b8381101562000808578082015181840152602081019050620007eb565b8381111562000818576000848401525b50505050565b600060028204905060018216806200083757607f821691505b602082108114156200084e576200084d6200088a565b5b50919050565b6200085f82620008e8565b810181811067ffffffffffffffff82111715620008815762000880620008b9565b5b80604052505050565b7f4e487b7100000000000000000000000000000000000000000000000000000000600052602260045260246000fd5b7f4e487b7100000000000000000000000000000000000000000000000000000000600052604160045260246000fd5b6000601f19601f8301169050919050565b620009048162000793565b81146200091057600080fd5b50565b6200091e81620007a1565b81146200092a57600080fd5b50565b6200093881620007cb565b81146200094457600080fd5b50565b6200095281620007db565b81146200095e57600080fd5b50565b60805160a05160c05160601c60e0516101005161012051615e24620009b460003960006134aa015260006134ec015260006134cb01526000613400015260006134560152600061347f0152615e246000f3fe6080604052600436106101c25760003560e01c80636352211e116100f7578063a22cb46511610095578063cc47a40b11610064578063cc47a40b14610638578063e8a3d48514610661578063e985e9c51461068c578063f2fde38b146106c9576101c2565b8063a22cb46514610580578063ad1191fa146105a9578063b88d4fde146105d2578063c87b56dd146105fb576101c2565b8063858e83b5116100d1578063858e83b5146104e55780638da5cb5b14610501578063905a7da61461052c57806395d89b4114610555576101c2565b80636352211e1461045457806370a0823114610491578063715018a6146104ce576101c2565b80632bf87116116101645780633ccfd60b1161013e5780633ccfd60b146103ae57806342842e0e146103c55780634f6ccce7146103ee57806355f804b31461042b576101c2565b80632bf87116146103265780632f745c59146103555780633425e8ba14610392576101c2565b8063095ea7b3116101a0578063095ea7b31461026c57806318160ddd1461029557806321489288146102c057806323b872dd146102fd576101c2565b806301ffc9a7146101c757806306fdde0314610204578063081812fc1461022f575b600080fd5b3480156101d357600080fd5b506101ee60048036038101906101e99190613fb0565b6106f2565b6040516101fb91906148ab565b60405180910390f35b34801561021057600080fd5b5061021961083c565b60405161022691906149a3565b60405180910390f35b34801561023b57600080fd5b50610256600480360381019061025191906140d8565b6108ce565b6040516102639190614844565b60405180910390f35b34801561027857600080fd5b50610293600480360381019061028e9190613f74565b610953565b005b3480156102a157600080fd5b506102aa610a6c565b6040516102b79190614e85565b60405180910390f35b3480156102cc57600080fd5b506102e760048036038101906102e29190613e09565b610a76565b6040516102f49190614e85565b60405180910390f35b34801561030957600080fd5b50610324600480360381019061031f9190613e6e565b610a8e565b005b34801561033257600080fd5b5061033b610a9e565b60405161034c959493929190614ea0565b60405180910390f35b34801561036157600080fd5b5061037c60048036038101906103779190613f74565b610b1d565b6040516103899190614e85565b60405180910390f35b6103ac60048036038101906103a79190614043565b610d1b565b005b3480156103ba57600080fd5b506103c3611148565b005b3480156103d157600080fd5b506103ec60048036038101906103e79190613e6e565b6111d7565b005b3480156103fa57600080fd5b50610415600480360381019061041091906140d8565b6111f7565b6040516104229190614e85565b60405180910390f35b34801561043757600080fd5b50610452600480360381019061044d9190614002565b61124a565b005b34801561046057600080fd5b5061047b600480360381019061047691906140d8565b6112e0565b6040516104889190614844565b60405180910390f35b34801561049d57600080fd5b506104b860048036038101906104b39190613e09565b6112f6565b6040516104c59190614e85565b60405180910390f35b3480156104da57600080fd5b506104e36113df565b005b6104ff60048036038101906104fa9190614101565b611467565b005b34801561050d57600080fd5b5061051661167e565b6040516105239190614844565b60405180910390f35b34801561053857600080fd5b50610553600480360381019061054e9190614002565b6116a7565b005b34801561056157600080fd5b5061056a61173d565b60405161057791906149a3565b60405180910390f35b34801561058c57600080fd5b506105a760048036038101906105a29190613f38565b6117cf565b005b3480156105b557600080fd5b506105d060048036038101906105cb91906140af565b611950565b005b3480156105de57600080fd5b506105f960048036038101906105f49190613ebd565b611bab565b005b34801561060757600080fd5b50610622600480360381019061061d91906140d8565b611c07565b60405161062f91906149a3565b60405180910390f35b34801561064457600080fd5b5061065f600480360381019061065a9190613f74565b611cae565b005b34801561066d57600080fd5b50610676611d92565b60405161068391906149a3565b60405180910390f35b34801561069857600080fd5b506106b360048036038101906106ae9190613e32565b611e24565b6040516106c091906148ab565b60405180910390f35b3480156106d557600080fd5b506106f060048036038101906106eb9190613e09565b611eb8565b005b60007f80ac58cd000000000000000000000000000000000000000000000000000000007bffffffffffffffffffffffffffffffffffffffffffffffffffffffff1916827bffffffffffffffffffffffffffffffffffffffffffffffffffffffff191614806107bd57507f5b5e139f000000000000000000000000000000000000000000000000000000007bffffffffffffffffffffffffffffffffffffffffffffffffffffffff1916827bffffffffffffffffffffffffffffffffffffffffffffffffffffffff1916145b8061082557507f780e9d63000000000000000000000000000000000000000000000000000000007bffffffffffffffffffffffffffffffffffffffffffffffffffffffff1916827bffffffffffffffffffffffffffffffffffffffffffffffffffffffff1916145b80610835575061083482611fb0565b5b9050919050565b60606002805461084b90615248565b80601f016020809104026020016040519081016040528092919081815260200182805461087790615248565b80156108c45780601f10610899576101008083540402835291602001916108c4565b820191906000526020600020905b8154815290600101906020018083116108a757829003601f168201915b5050505050905090565b60006108d98261201a565b610918576040517f08c379a000000000000000000000000000000000000000000000000000000000815260040161090f90614e65565b60405180910390fd5b6006600083815260200190815260200160002060009054906101000a900473ffffffffffffffffffffffffffffffffffffffff169050919050565b600061095e826112e0565b90508073ffffffffffffffffffffffffffffffffffffffff168373ffffffffffffffffffffffffffffffffffffffff1614156109cf576040517f08c379a00000000000000000000000000000000000000000000000000000000081526004016109c690614d65565b60405180910390fd5b8073ffffffffffffffffffffffffffffffffffffffff166109ee612028565b73ffffffffffffffffffffffffffffffffffffffff161480610a1d5750610a1c81610a17612028565b611e24565b5b610a5c576040517f08c379a0000000000000000000000000000000000000000000000000000000008152600401610a5390614c05565b60405180910390fd5b610a67838383612030565b505050565b6000600154905090565b600c6020528060005260406000206000915090505481565b610a998383836120e2565b505050565b60088060000160009054906101000a900460ff16908060000160019054906101000a900461ffff16908060000160039054906101000a900463ffffffff16908060000160079054906101000a900463ffffffff169080600001600b9054906101000a900473ffffffffffffffffffffffffffffffffffffffff16905085565b6000610b28836112f6565b8210610b69576040517f08c379a0000000000000000000000000000000000000000000000000000000008152600401610b60906149e5565b60405180910390fd5b6000610b73610a6c565b905060008060005b83811015610cd9576000600460008381526020019081526020016000206040518060400160405290816000820160009054906101000a900473ffffffffffffffffffffffffffffffffffffffff1673ffffffffffffffffffffffffffffffffffffffff1673ffffffffffffffffffffffffffffffffffffffff1681526020016000820160149054906101000a900467ffffffffffffffff1667ffffffffffffffff1667ffffffffffffffff16815250509050600073ffffffffffffffffffffffffffffffffffffffff16816000015173ffffffffffffffffffffffffffffffffffffffff1614610c6d57806000015192505b8773ffffffffffffffffffffffffffffffffffffffff168373ffffffffffffffffffffffffffffffffffffffff161415610cc55786841415610cb6578195505050505050610d15565b8380610cc1906152ab565b9450505b508080610cd1906152ab565b915050610b7b565b506040517f08c379a0000000000000000000000000000000000000000000000000000000008152600401610d0c90614e05565b60405180910390fd5b92915050565b6000600b6000610d29612028565b73ffffffffffffffffffffffffffffffffffffffff1673ffffffffffffffffffffffffffffffffffffffff1681526020019081526020016000209050600860000160009054906101000a900460ff1660ff168160000160009054906101000a900460ff1660ff1611610e6b57610da0858585612689565b600860000160009054906101000a900460ff1660ff16856020016020810190610dc99190614101565b60ff1614610e0c576040517f08c379a0000000000000000000000000000000000000000000000000000000008152600401610e0390614cc5565b60405180910390fd5b846020016020810190610e1f9190614101565b8160000160006101000a81548160ff021916908360ff160217905550846040016020810190610e4e9190614101565b8160000160016101000a81548160ff021916908360ff1602179055505b600860000160039054906101000a900463ffffffff1663ffffffff16421015610ec9576040517f08c379a0000000000000000000000000000000000000000000000000000000008152600401610ec090614be5565b60405180910390fd5b600860000160079054906101000a900463ffffffff1663ffffffff16421115610f27576040517f08c379a0000000000000000000000000000000000000000000000000000000008152600401610f1e90614b25565b60405180910390fd5b600c6000610f33612028565b73ffffffffffffffffffffffffffffffffffffffff1673ffffffffffffffffffffffffffffffffffffffff168152602001908152602001600020548160000160019054906101000a900460ff1660ff16610f8d91906150e3565b8260ff161115610fd2576040517f08c379a0000000000000000000000000000000000000000000000000000000008152600401610fc990614bc5565b60405180910390fd5b600860000160019054906101000a900461ffff1661ffff168260ff16610ff6610a6c565b611000919061500e565b1115611041576040517f08c379a000000000000000000000000000000000000000000000000000000000815260040161103890614a65565b60405180910390fd5b8160ff166008600001600b9054906101000a900473ffffffffffffffffffffffffffffffffffffffff166110759190615095565b73ffffffffffffffffffffffffffffffffffffffff163410156110cd576040517f08c379a00000000000000000000000000000000000000000000000000000000081526004016110c490614b05565b60405180910390fd5b6110e16110d8612028565b8360ff166127d5565b8160ff16600c60006110f1612028565b73ffffffffffffffffffffffffffffffffffffffff1673ffffffffffffffffffffffffffffffffffffffff168152602001908152602001600020600082825461113a919061500e565b925050819055505050505050565b611150612028565b73ffffffffffffffffffffffffffffffffffffffff1661116e61167e565b73ffffffffffffffffffffffffffffffffffffffff16146111c4576040517f08c379a00000000000000000000000000000000000000000000000000000000081526004016111bb90614c85565b60405180910390fd5b6111d56111cf61167e565b476127f3565b565b6111f283838360405180602001604052806000815250611bab565b505050565b6000611201610a6c565b8210611242576040517f08c379a000000000000000000000000000000000000000000000000000000000815260040161123990614ac5565b60405180910390fd5b819050919050565b611252612028565b73ffffffffffffffffffffffffffffffffffffffff1661127061167e565b73ffffffffffffffffffffffffffffffffffffffff16146112c6576040517f08c379a00000000000000000000000000000000000000000000000000000000081526004016112bd90614c85565b60405180910390fd5b80600990805190602001906112dc929190613ab2565b5050565b60006112eb826128e7565b600001519050919050565b60008073ffffffffffffffffffffffffffffffffffffffff168273ffffffffffffffffffffffffffffffffffffffff161415611367576040517f08c379a000000000000000000000000000000000000000000000000000000000815260040161135e90614c25565b60405180910390fd5b600560008373ffffffffffffffffffffffffffffffffffffffff1673ffffffffffffffffffffffffffffffffffffffff16815260200190815260200160002060000160009054906101000a90046fffffffffffffffffffffffffffffffff166fffffffffffffffffffffffffffffffff169050919050565b6113e7612028565b73ffffffffffffffffffffffffffffffffffffffff1661140561167e565b73ffffffffffffffffffffffffffffffffffffffff161461145b576040517f08c379a000000000000000000000000000000000000000000000000000000000815260040161145290614c85565b60405180910390fd5b6114656000612a42565b565b600260ff16600860000160009054906101000a900460ff1660ff16146114c2576040517f08c379a00000000000000000000000000000000000000000000000000000000081526004016114b990614b45565b60405180910390fd5b600860000160039054906101000a900463ffffffff1663ffffffff16421015611520576040517f08c379a000000000000000000000000000000000000000000000000000000000815260040161151790614be5565b60405180910390fd5b600860000160079054906101000a900463ffffffff1663ffffffff1642111561157e576040517f08c379a000000000000000000000000000000000000000000000000000000000815260040161157590614b25565b60405180910390fd5b600561ffff168160ff16611590610a6c565b61159a919061500e565b11156115db576040517f08c379a00000000000000000000000000000000000000000000000000000000081526004016115d290614ca5565b60405180910390fd5b8060ff166008600001600b9054906101000a900473ffffffffffffffffffffffffffffffffffffffff1661160f9190615095565b73ffffffffffffffffffffffffffffffffffffffff16341015611667576040517f08c379a000000000000000000000000000000000000000000000000000000000815260040161165e90614e45565b60405180910390fd5b61167b611672612028565b8260ff166127d5565b50565b60008060009054906101000a900473ffffffffffffffffffffffffffffffffffffffff16905090565b6116af612028565b73ffffffffffffffffffffffffffffffffffffffff166116cd61167e565b73ffffffffffffffffffffffffffffffffffffffff1614611723576040517f08c379a000000000000000000000000000000000000000000000000000000000815260040161171a90614c85565b60405180910390fd5b80600a9080519060200190611739929190613ab2565b5050565b60606003805461174c90615248565b80601f016020809104026020016040519081016040528092919081815260200182805461177890615248565b80156117c55780601f1061179a576101008083540402835291602001916117c5565b820191906000526020600020905b8154815290600101906020018083116117a857829003601f168201915b5050505050905090565b6117d7612028565b73ffffffffffffffffffffffffffffffffffffffff168273ffffffffffffffffffffffffffffffffffffffff161415611845576040517f08c379a000000000000000000000000000000000000000000000000000000000815260040161183c90614d05565b60405180910390fd5b8060076000611852612028565b73ffffffffffffffffffffffffffffffffffffffff1673ffffffffffffffffffffffffffffffffffffffff16815260200190815260200160002060008473ffffffffffffffffffffffffffffffffffffffff1673ffffffffffffffffffffffffffffffffffffffff16815260200190815260200160002060006101000a81548160ff0219169083151502179055508173ffffffffffffffffffffffffffffffffffffffff166118ff612028565b73ffffffffffffffffffffffffffffffffffffffff167f17307eab39ab6107e8899845ad3d59bd9653f200f220920489ca2b5937696c318360405161194491906148ab565b60405180910390a35050565b611958612028565b73ffffffffffffffffffffffffffffffffffffffff1661197661167e565b73ffffffffffffffffffffffffffffffffffffffff16146119cc576040517f08c379a00000000000000000000000000000000000000000000000000000000081526004016119c390614c85565b60405180910390fd5b600860000160009054906101000a900460ff1660ff16816000015160ff161015611a2b576040517f08c379a0000000000000000000000000000000000000000000000000000000008152600401611a2290614aa5565b60405180910390fd5b600561ffff16816020015161ffff161115611a7b576040517f08c379a0000000000000000000000000000000000000000000000000000000008152600401611a7290614a05565b60405180910390fd5b600260ff16816000015160ff161115611ac9576040517f08c379a0000000000000000000000000000000000000000000000000000000008152600401611ac090614e25565b60405180910390fd5b80600860008201518160000160006101000a81548160ff021916908360ff16021790555060208201518160000160016101000a81548161ffff021916908361ffff16021790555060408201518160000160036101000a81548163ffffffff021916908363ffffffff16021790555060608201518160000160076101000a81548163ffffffff021916908363ffffffff160217905550608082015181600001600b6101000a81548173ffffffffffffffffffffffffffffffffffffffff021916908373ffffffffffffffffffffffffffffffffffffffff16021790555090505050565b611bb68484846120e2565b611bc284848484612b06565b611c01576040517f08c379a0000000000000000000000000000000000000000000000000000000008152600401611bf890614da5565b60405180910390fd5b50505050565b6060611c128261201a565b611c51576040517f08c379a0000000000000000000000000000000000000000000000000000000008152600401611c4890614ce5565b60405180910390fd5b6000611c5b612c9d565b90506000815111611c7b5760405180602001604052806000815250611ca6565b80611c8584612d2f565b604051602001611c969291906147d4565b6040516020818303038152906040525b915050919050565b611cb6612028565b73ffffffffffffffffffffffffffffffffffffffff16611cd461167e565b73ffffffffffffffffffffffffffffffffffffffff1614611d2a576040517f08c379a0000000000000000000000000000000000000000000000000000000008152600401611d2190614c85565b60405180910390fd5b600561ffff1681611d39610a6c565b611d43919061500e565b1115611d84576040517f08c379a0000000000000000000000000000000000000000000000000000000008152600401611d7b90614ca5565b60405180910390fd5b611d8e82826127d5565b5050565b6060600a8054611da190615248565b80601f0160208091040260200160405190810160405280929190818152602001828054611dcd90615248565b8015611e1a5780601f10611def57610100808354040283529160200191611e1a565b820191906000526020600020905b815481529060010190602001808311611dfd57829003601f168201915b5050505050905090565b6000600760008473ffffffffffffffffffffffffffffffffffffffff1673ffffffffffffffffffffffffffffffffffffffff16815260200190815260200160002060008373ffffffffffffffffffffffffffffffffffffffff1673ffffffffffffffffffffffffffffffffffffffff16815260200190815260200160002060009054906101000a900460ff16905092915050565b611ec0612028565b73ffffffffffffffffffffffffffffffffffffffff16611ede61167e565b73ffffffffffffffffffffffffffffffffffffffff1614611f34576040517f08c379a0000000000000000000000000000000000000000000000000000000008152600401611f2b90614c85565b60405180910390fd5b600073ffffffffffffffffffffffffffffffffffffffff168173ffffffffffffffffffffffffffffffffffffffff161415611fa4576040517f08c379a0000000000000000000000000000000000000000000000000000000008152600401611f9b90614a45565b60405180910390fd5b611fad81612a42565b50565b60007f01ffc9a7000000000000000000000000000000000000000000000000000000007bffffffffffffffffffffffffffffffffffffffffffffffffffffffff1916827bffffffffffffffffffffffffffffffffffffffffffffffffffffffff1916149050919050565b600060015482109050919050565b600033905090565b826006600084815260200190815260200160002060006101000a81548173ffffffffffffffffffffffffffffffffffffffff021916908373ffffffffffffffffffffffffffffffffffffffff160217905550818373ffffffffffffffffffffffffffffffffffffffff168273ffffffffffffffffffffffffffffffffffffffff167f8c5be1e5ebec7d5bd14f71427d1e84f3dd0314c0f7b2291e5b200ac8c7c3b92560405160405180910390a4505050565b60006120ed826128e7565b90506000816000015173ffffffffffffffffffffffffffffffffffffffff16612114612028565b73ffffffffffffffffffffffffffffffffffffffff1614806121705750612139612028565b73ffffffffffffffffffffffffffffffffffffffff16612158846108ce565b73ffffffffffffffffffffffffffffffffffffffff16145b8061218c575061218b8260000151612186612028565b611e24565b5b9050806121ce576040517f08c379a00000000000000000000000000000000000000000000000000000000081526004016121c590614d25565b60405180910390fd5b8473ffffffffffffffffffffffffffffffffffffffff16826000015173ffffffffffffffffffffffffffffffffffffffff1614612240576040517f08c379a000000000000000000000000000000000000000000000000000000000815260040161223790614c65565b60405180910390fd5b600073ffffffffffffffffffffffffffffffffffffffff168473ffffffffffffffffffffffffffffffffffffffff1614156122b0576040517f08c379a00000000000000000000000000000000000000000000000000000000081526004016122a790614ae5565b60405180910390fd5b6122bd8585856001612edc565b6122cd6000848460000151612030565b6001600560008773ffffffffffffffffffffffffffffffffffffffff1673ffffffffffffffffffffffffffffffffffffffff16815260200190815260200160002060000160008282829054906101000a90046fffffffffffffffffffffffffffffffff160392506101000a8154816fffffffffffffffffffffffffffffffff02191690836fffffffffffffffffffffffffffffffff1602179055506001600560008673ffffffffffffffffffffffffffffffffffffffff1673ffffffffffffffffffffffffffffffffffffffff16815260200190815260200160002060000160008282829054906101000a90046fffffffffffffffffffffffffffffffff160192506101000a8154816fffffffffffffffffffffffffffffffff02191690836fffffffffffffffffffffffffffffffff16021790555060405180604001604052808573ffffffffffffffffffffffffffffffffffffffff1681526020014267ffffffffffffffff168152506004600085815260200190815260200160002060008201518160000160006101000a81548173ffffffffffffffffffffffffffffffffffffffff021916908373ffffffffffffffffffffffffffffffffffffffff16021790555060208201518160000160146101000a81548167ffffffffffffffff021916908367ffffffffffffffff16021790555090505060006001846124d3919061500e565b9050600073ffffffffffffffffffffffffffffffffffffffff166004600083815260200190815260200160002060000160009054906101000a900473ffffffffffffffffffffffffffffffffffffffff1673ffffffffffffffffffffffffffffffffffffffff161415612619576125498161201a565b15612618576040518060400160405280846000015173ffffffffffffffffffffffffffffffffffffffff168152602001846020015167ffffffffffffffff168152506004600083815260200190815260200160002060008201518160000160006101000a81548173ffffffffffffffffffffffffffffffffffffffff021916908373ffffffffffffffffffffffffffffffffffffffff16021790555060208201518160000160146101000a81548167ffffffffffffffff021916908367ffffffffffffffff1602179055509050505b5b838573ffffffffffffffffffffffffffffffffffffffff168773ffffffffffffffffffffffffffffffffffffffff167fddf252ad1be2c89b69c2b068fc378daa952ba7f163c4a11628f55a4df523b3ef60405160405180910390a46126818686866001612ee2565b505050505050565b600061270b7f56fc50411139d37d603be8c646a514a74d727c7be5c2dc1f9c0606059fa1c7c96126b7612028565b8660200160208101906126ca9190614101565b8760400160208101906126dd9190614101565b6040516020016126f094939291906148c6565b60405160208183030381529060405280519060200120612ee8565b905061275b8184848080601f016020809104026020016040519081016040528093929190818152602001838380828437600081840152601f19601f82011690508083019250505050505050612f02565b73ffffffffffffffffffffffffffffffffffffffff1661277961167e565b73ffffffffffffffffffffffffffffffffffffffff16146127cf576040517f08c379a00000000000000000000000000000000000000000000000000000000081526004016127c690614d45565b60405180910390fd5b50505050565b6127ef828260405180602001604052806000815250612f29565b5050565b80471015612836576040517f08c379a000000000000000000000000000000000000000000000000000000000815260040161282d90614ba5565b60405180910390fd5b60008273ffffffffffffffffffffffffffffffffffffffff168260405161285c9061482f565b60006040518083038185875af1925050503d8060008114612899576040519150601f19603f3d011682016040523d82523d6000602084013e61289e565b606091505b50509050806128e2576040517f08c379a00000000000000000000000000000000000000000000000000000000081526004016128d990614b65565b60405180910390fd5b505050565b6128ef613b38565b6128f88261201a565b612937576040517f08c379a000000000000000000000000000000000000000000000000000000000815260040161292e90614a85565b60405180910390fd5b60008290505b6000600460008381526020019081526020016000206040518060400160405290816000820160009054906101000a900473ffffffffffffffffffffffffffffffffffffffff1673ffffffffffffffffffffffffffffffffffffffff1673ffffffffffffffffffffffffffffffffffffffff1681526020016000820160149054906101000a900467ffffffffffffffff1667ffffffffffffffff1667ffffffffffffffff16815250509050600073ffffffffffffffffffffffffffffffffffffffff16816000015173ffffffffffffffffffffffffffffffffffffffff1614612a29578092505050612a3d565b508080612a359061521e565b91505061293d565b919050565b60008060009054906101000a900473ffffffffffffffffffffffffffffffffffffffff169050816000806101000a81548173ffffffffffffffffffffffffffffffffffffffff021916908373ffffffffffffffffffffffffffffffffffffffff1602179055508173ffffffffffffffffffffffffffffffffffffffff168173ffffffffffffffffffffffffffffffffffffffff167f8be0079c531659141344cd1fd0a4f28419497f9722a3daafe3b4186f6b6457e060405160405180910390a35050565b6000612b278473ffffffffffffffffffffffffffffffffffffffff166133e9565b15612c90578373ffffffffffffffffffffffffffffffffffffffff1663150b7a02612b50612028565b8786866040518563ffffffff1660e01b8152600401612b72949392919061485f565b602060405180830381600087803b158015612b8c57600080fd5b505af1925050508015612bbd57506040513d601f19601f82011682018060405250810190612bba9190613fd9565b60015b612c40573d8060008114612bed576040519150601f19603f3d011682016040523d82523d6000602084013e612bf2565b606091505b50600081511415612c38576040517f08c379a0000000000000000000000000000000000000000000000000000000008152600401612c2f90614da5565b60405180910390fd5b805181602001fd5b63150b7a0260e01b7bffffffffffffffffffffffffffffffffffffffffffffffffffffffff1916817bffffffffffffffffffffffffffffffffffffffffffffffffffffffff191614915050612c95565b600190505b949350505050565b606060098054612cac90615248565b80601f0160208091040260200160405190810160405280929190818152602001828054612cd890615248565b8015612d255780601f10612cfa57610100808354040283529160200191612d25565b820191906000526020600020905b815481529060010190602001808311612d0857829003601f168201915b5050505050905090565b60606000821415612d77576040518060400160405280600181526020017f30000000000000000000000000000000000000000000000000000000000000008152509050612ed7565b600082905060005b60008214612da9578080612d92906152ab565b915050600a82612da29190615064565b9150612d7f565b60008167ffffffffffffffff811115612deb577f4e487b7100000000000000000000000000000000000000000000000000000000600052604160045260246000fd5b6040519080825280601f01601f191660200182016040528015612e1d5781602001600182028036833780820191505090505b5090505b60008514612ed057600182612e3691906150e3565b9150600a85612e4591906152fe565b6030612e51919061500e565b60f81b818381518110612e8d577f4e487b7100000000000000000000000000000000000000000000000000000000600052603260045260246000fd5b60200101907effffffffffffffffffffffffffffffffffffffffffffffffffffffffffffff1916908160001a905350600a85612ec99190615064565b9450612e21565b8093505050505b919050565b50505050565b50505050565b6000612efb612ef56133fc565b83613516565b9050919050565b6000806000612f118585613549565b91509150612f1e816135cc565b819250505092915050565b60006001549050600073ffffffffffffffffffffffffffffffffffffffff168473ffffffffffffffffffffffffffffffffffffffff161415612fa0576040517f08c379a0000000000000000000000000000000000000000000000000000000008152600401612f9790614de5565b60405180910390fd5b612fa98161201a565b15612fe9576040517f08c379a0000000000000000000000000000000000000000000000000000000008152600401612fe090614dc5565b60405180910390fd5b6000831161302c576040517f08c379a000000000000000000000000000000000000000000000000000000000815260040161302390614d85565b60405180910390fd5b6130396000858386612edc565b6000600560008673ffffffffffffffffffffffffffffffffffffffff1673ffffffffffffffffffffffffffffffffffffffff1681526020019081526020016000206040518060400160405290816000820160009054906101000a90046fffffffffffffffffffffffffffffffff166fffffffffffffffffffffffffffffffff166fffffffffffffffffffffffffffffffff1681526020016000820160109054906101000a90046fffffffffffffffffffffffffffffffff166fffffffffffffffffffffffffffffffff166fffffffffffffffffffffffffffffffff1681525050905060405180604001604052808583600001516131369190614fc8565b6fffffffffffffffffffffffffffffffff16815260200185836020015161315d9190614fc8565b6fffffffffffffffffffffffffffffffff16815250600560008773ffffffffffffffffffffffffffffffffffffffff1673ffffffffffffffffffffffffffffffffffffffff16815260200190815260200160002060008201518160000160006101000a8154816fffffffffffffffffffffffffffffffff02191690836fffffffffffffffffffffffffffffffff16021790555060208201518160000160106101000a8154816fffffffffffffffffffffffffffffffff02191690836fffffffffffffffffffffffffffffffff16021790555090505060405180604001604052808673ffffffffffffffffffffffffffffffffffffffff1681526020014267ffffffffffffffff168152506004600084815260200190815260200160002060008201518160000160006101000a81548173ffffffffffffffffffffffffffffffffffffffff021916908373ffffffffffffffffffffffffffffffffffffffff16021790555060208201518160000160146101000a81548167ffffffffffffffff021916908367ffffffffffffffff160217905550905050600082905060005b858110156133cc57818773ffffffffffffffffffffffffffffffffffffffff16600073ffffffffffffffffffffffffffffffffffffffff167fddf252ad1be2c89b69c2b068fc378daa952ba7f163c4a11628f55a4df523b3ef60405160405180910390a461336c6000888488612b06565b6133ab576040517f08c379a00000000000000000000000000000000000000000000000000000000081526004016133a290614da5565b60405180910390fd5b81806133b6906152ab565b92505080806133c4906152ab565b9150506132fb565b50806001819055506133e16000878588612ee2565b505050505050565b600080823b905060008111915050919050565b60007f000000000000000000000000000000000000000000000000000000000000000073ffffffffffffffffffffffffffffffffffffffff163073ffffffffffffffffffffffffffffffffffffffff1614801561347857507f000000000000000000000000000000000000000000000000000000000000000046145b156134a5577f00000000000000000000000000000000000000000000000000000000000000009050613513565b6135107f00000000000000000000000000000000000000000000000000000000000000007f00000000000000000000000000000000000000000000000000000000000000007f000000000000000000000000000000000000000000000000000000000000000061391d565b90505b90565b6000828260405160200161352b9291906147f8565b60405160208183030381529060405280519060200120905092915050565b60008060418351141561358b5760008060006020860151925060408601519150606086015160001a905061357f87828585613957565b945094505050506135c5565b6040835114156135bc5760008060208501519150604085015190506135b1868383613a64565b9350935050506135c5565b60006002915091505b9250929050565b60006004811115613606577f4e487b7100000000000000000000000000000000000000000000000000000000600052602160045260246000fd5b81600481111561363f577f4e487b7100000000000000000000000000000000000000000000000000000000600052602160045260246000fd5b141561364a5761391a565b60016004811115613684577f4e487b7100000000000000000000000000000000000000000000000000000000600052602160045260246000fd5b8160048111156136bd577f4e487b7100000000000000000000000000000000000000000000000000000000600052602160045260246000fd5b14156136fe576040517f08c379a00000000000000000000000000000000000000000000000000000000081526004016136f5906149c5565b60405180910390fd5b60026004811115613738577f4e487b7100000000000000000000000000000000000000000000000000000000600052602160045260246000fd5b816004811115613771577f4e487b7100000000000000000000000000000000000000000000000000000000600052602160045260246000fd5b14156137b2576040517f08c379a00000000000000000000000000000000000000000000000000000000081526004016137a990614a25565b60405180910390fd5b600360048111156137ec577f4e487b7100000000000000000000000000000000000000000000000000000000600052602160045260246000fd5b816004811115613825577f4e487b7100000000000000000000000000000000000000000000000000000000600052602160045260246000fd5b1415613866576040517f08c379a000000000000000000000000000000000000000000000000000000000815260040161385d90614b85565b60405180910390fd5b60048081111561389f577f4e487b7100000000000000000000000000000000000000000000000000000000600052602160045260246000fd5b8160048111156138d8577f4e487b7100000000000000000000000000000000000000000000000000000000600052602160045260246000fd5b1415613919576040517f08c379a000000000000000000000000000000000000000000000000000000000815260040161391090614c45565b60405180910390fd5b5b50565b6000838383463060405160200161393895949392919061490b565b6040516020818303038152906040528051906020012090509392505050565b6000807f7fffffffffffffffffffffffffffffff5d576e7357a4501ddfe92f46681b20a08360001c1115613992576000600391509150613a5b565b601b8560ff16141580156139aa5750601c8560ff1614155b156139bc576000600491509150613a5b565b6000600187878787604051600081526020016040526040516139e1949392919061495e565b6020604051602081039080840390855afa158015613a03573d6000803e3d6000fd5b505050602060405103519050600073ffffffffffffffffffffffffffffffffffffffff168173ffffffffffffffffffffffffffffffffffffffff161415613a5257600060019250925050613a5b565b80600092509250505b94509492505050565b6000806000807f7fffffffffffffffffffffffffffffffffffffffffffffffffffffffffffffff85169150601b8560ff1c019050613aa487828885613957565b935093505050935093915050565b828054613abe90615248565b90600052602060002090601f016020900481019282613ae05760008555613b27565b82601f10613af957805160ff1916838001178555613b27565b82800160010185558215613b27579182015b82811115613b26578251825591602001919060010190613b0b565b5b509050613b349190613b72565b5090565b6040518060400160405280600073ffffffffffffffffffffffffffffffffffffffff168152602001600067ffffffffffffffff1681525090565b5b80821115613b8b576000816000905550600101613b73565b5090565b6000613ba2613b9d84614f18565b614ef3565b905082815260208101848484011115613bba57600080fd5b613bc58482856151dc565b509392505050565b6000613be0613bdb84614f49565b614ef3565b905082815260208101848484011115613bf857600080fd5b613c038482856151dc565b509392505050565b600081359050613c1a81615d36565b92915050565b600081359050613c2f81615d4d565b92915050565b600081359050613c4481615d64565b92915050565b600081519050613c5981615d64565b92915050565b60008083601f840112613c7157600080fd5b8235905067ffffffffffffffff811115613c8a57600080fd5b602083019150836001820283011115613ca257600080fd5b9250929050565b600082601f830112613cba57600080fd5b8135613cca848260208601613b8f565b91505092915050565b600082601f830112613ce457600080fd5b8135613cf4848260208601613bcd565b91505092915050565b600060608284031215613d0f57600080fd5b81905092915050565b600060a08284031215613d2a57600080fd5b613d3460a0614ef3565b90506000613d4484828501613df4565b6000830152506020613d5884828501613da0565b6020830152506040613d6c84828501613ddf565b6040830152506060613d8084828501613ddf565b6060830152506080613d9484828501613db5565b60808301525092915050565b600081359050613daf81615d7b565b92915050565b600081359050613dc481615d92565b92915050565b600081359050613dd981615da9565b92915050565b600081359050613dee81615dc0565b92915050565b600081359050613e0381615dd7565b92915050565b600060208284031215613e1b57600080fd5b6000613e2984828501613c0b565b91505092915050565b60008060408385031215613e4557600080fd5b6000613e5385828601613c0b565b9250506020613e6485828601613c0b565b9150509250929050565b600080600060608486031215613e8357600080fd5b6000613e9186828701613c0b565b9350506020613ea286828701613c0b565b9250506040613eb386828701613dca565b9150509250925092565b60008060008060808587031215613ed357600080fd5b6000613ee187828801613c0b565b9450506020613ef287828801613c0b565b9350506040613f0387828801613dca565b925050606085013567ffffffffffffffff811115613f2057600080fd5b613f2c87828801613ca9565b91505092959194509250565b60008060408385031215613f4b57600080fd5b6000613f5985828601613c0b565b9250506020613f6a85828601613c20565b9150509250929050565b60008060408385031215613f8757600080fd5b6000613f9585828601613c0b565b9250506020613fa685828601613dca565b9150509250929050565b600060208284031215613fc257600080fd5b6000613fd084828501613c35565b91505092915050565b600060208284031215613feb57600080fd5b6000613ff984828501613c4a565b91505092915050565b60006020828403121561401457600080fd5b600082013567ffffffffffffffff81111561402e57600080fd5b61403a84828501613cd3565b91505092915050565b60008060008060a0858703121561405957600080fd5b600061406787828801613cfd565b945050606085013567ffffffffffffffff81111561408457600080fd5b61409087828801613c5f565b935093505060806140a387828801613df4565b91505092959194509250565b600060a082840312156140c157600080fd5b60006140cf84828501613d18565b91505092915050565b6000602082840312156140ea57600080fd5b60006140f884828501613dca565b91505092915050565b60006020828403121561411357600080fd5b600061412184828501613df4565b91505092915050565b61413381615117565b82525050565b61414281615129565b82525050565b61415181615135565b82525050565b61416861416382615135565b6152f4565b82525050565b600061417982614f7a565b6141838185614f90565b93506141938185602086016151eb565b61419c816153eb565b840191505092915050565b60006141b282614f85565b6141bc8185614fac565b93506141cc8185602086016151eb565b6141d5816153eb565b840191505092915050565b60006141eb82614f85565b6141f58185614fbd565b93506142058185602086016151eb565b80840191505092915050565b600061421e601883614fac565b9150614229826153fc565b602082019050919050565b6000614241602283614fac565b915061424c82615425565b604082019050919050565b6000614264601583614fac565b915061426f82615474565b602082019050919050565b6000614287601f83614fac565b91506142928261549d565b602082019050919050565b60006142aa602683614fac565b91506142b5826154c6565b604082019050919050565b60006142cd601783614fac565b91506142d882615515565b602082019050919050565b60006142f0602a83614fac565b91506142fb8261553e565b604082019050919050565b6000614313600283614fbd565b915061431e8261558d565b600282019050919050565b6000614336601c83614fac565b9150614341826155b6565b602082019050919050565b6000614359602383614fac565b9150614364826155df565b604082019050919050565b600061437c602583614fac565b91506143878261562e565b604082019050919050565b600061439f600f83614fac565b91506143aa8261567d565b602082019050919050565b60006143c2601283614fac565b91506143cd826156a6565b602082019050919050565b60006143e5601783614fac565b91506143f0826156cf565b602082019050919050565b6000614408603a83614fac565b9150614413826156f8565b604082019050919050565b600061442b602283614fac565b915061443682615747565b604082019050919050565b600061444e601d83614fac565b915061445982615796565b602082019050919050565b6000614471601783614fac565b915061447c826157bf565b602082019050919050565b6000614494601083614fac565b915061449f826157e8565b602082019050919050565b60006144b7603983614fac565b91506144c282615811565b604082019050919050565b60006144da602b83614fac565b91506144e582615860565b604082019050919050565b60006144fd602283614fac565b9150614508826158af565b604082019050919050565b6000614520602683614fac565b915061452b826158fe565b604082019050919050565b6000614543602083614fac565b915061454e8261594d565b602082019050919050565b6000614566601383614fac565b915061457182615976565b602082019050919050565b6000614589600b83614fac565b91506145948261599f565b602082019050919050565b60006145ac602f83614fac565b91506145b7826159c8565b604082019050919050565b60006145cf601a83614fac565b91506145da82615a17565b602082019050919050565b60006145f2603283614fac565b91506145fd82615a40565b604082019050919050565b6000614615602183614fac565b915061462082615a8f565b604082019050919050565b6000614638602283614fac565b915061464382615ade565b604082019050919050565b600061465b600083614fa1565b915061466682615b2d565b600082019050919050565b600061467e602383614fac565b915061468982615b30565b604082019050919050565b60006146a1603383614fac565b91506146ac82615b7f565b604082019050919050565b60006146c4601d83614fac565b91506146cf82615bce565b602082019050919050565b60006146e7602183614fac565b91506146f282615bf7565b604082019050919050565b600061470a602e83614fac565b915061471582615c46565b604082019050919050565b600061472d601583614fac565b915061473882615c95565b602082019050919050565b6000614750601b83614fac565b915061475b82615cbe565b602082019050919050565b6000614773602d83614fac565b915061477e82615ce7565b604082019050919050565b61479281615195565b82525050565b6147a181615187565b82525050565b6147b0816151b5565b82525050565b6147bf816151bf565b82525050565b6147ce816151cf565b82525050565b60006147e082856141e0565b91506147ec82846141e0565b91508190509392505050565b600061480382614306565b915061480f8285614157565b60208201915061481f8284614157565b6020820191508190509392505050565b600061483a8261464e565b9150819050919050565b6000602082019050614859600083018461412a565b92915050565b6000608082019050614874600083018761412a565b614881602083018661412a565b61488e60408301856147a7565b81810360608301526148a0818461416e565b905095945050505050565b60006020820190506148c06000830184614139565b92915050565b60006080820190506148db6000830187614148565b6148e8602083018661412a565b6148f560408301856147c5565b61490260608301846147c5565b95945050505050565b600060a0820190506149206000830188614148565b61492d6020830187614148565b61493a6040830186614148565b61494760608301856147a7565b614954608083018461412a565b9695505050505050565b60006080820190506149736000830187614148565b61498060208301866147c5565b61498d6040830185614148565b61499a6060830184614148565b95945050505050565b600060208201905081810360008301526149bd81846141a7565b905092915050565b600060208201905081810360008301526149de81614211565b9050919050565b600060208201905081810360008301526149fe81614234565b9050919050565b60006020820190508181036000830152614a1e81614257565b9050919050565b60006020820190508181036000830152614a3e8161427a565b9050919050565b60006020820190508181036000830152614a5e8161429d565b9050919050565b60006020820190508181036000830152614a7e816142c0565b9050919050565b60006020820190508181036000830152614a9e816142e3565b9050919050565b60006020820190508181036000830152614abe81614329565b9050919050565b60006020820190508181036000830152614ade8161434c565b9050919050565b60006020820190508181036000830152614afe8161436f565b9050919050565b60006020820190508181036000830152614b1e81614392565b9050919050565b60006020820190508181036000830152614b3e816143b5565b9050919050565b60006020820190508181036000830152614b5e816143d8565b9050919050565b60006020820190508181036000830152614b7e816143fb565b9050919050565b60006020820190508181036000830152614b9e8161441e565b9050919050565b60006020820190508181036000830152614bbe81614441565b9050919050565b60006020820190508181036000830152614bde81614464565b9050919050565b60006020820190508181036000830152614bfe81614487565b9050919050565b60006020820190508181036000830152614c1e816144aa565b9050919050565b60006020820190508181036000830152614c3e816144cd565b9050919050565b60006020820190508181036000830152614c5e816144f0565b9050919050565b60006020820190508181036000830152614c7e81614513565b9050919050565b60006020820190508181036000830152614c9e81614536565b9050919050565b60006020820190508181036000830152614cbe81614559565b9050919050565b60006020820190508181036000830152614cde8161457c565b9050919050565b60006020820190508181036000830152614cfe8161459f565b9050919050565b60006020820190508181036000830152614d1e816145c2565b9050919050565b60006020820190508181036000830152614d3e816145e5565b9050919050565b60006020820190508181036000830152614d5e81614608565b9050919050565b60006020820190508181036000830152614d7e8161462b565b9050919050565b60006020820190508181036000830152614d9e81614671565b9050919050565b60006020820190508181036000830152614dbe81614694565b9050919050565b60006020820190508181036000830152614dde816146b7565b9050919050565b60006020820190508181036000830152614dfe816146da565b9050919050565b60006020820190508181036000830152614e1e816146fd565b9050919050565b60006020820190508181036000830152614e3e81614720565b9050919050565b60006020820190508181036000830152614e5e81614743565b9050919050565b60006020820190508181036000830152614e7e81614766565b9050919050565b6000602082019050614e9a60008301846147a7565b92915050565b600060a082019050614eb560008301886147c5565b614ec26020830187614798565b614ecf60408301866147b6565b614edc60608301856147b6565b614ee96080830184614789565b9695505050505050565b6000614efd614f0e565b9050614f09828261527a565b919050565b6000604051905090565b600067ffffffffffffffff821115614f3357614f326153bc565b5b614f3c826153eb565b9050602081019050919050565b600067ffffffffffffffff821115614f6457614f636153bc565b5b614f6d826153eb565b9050602081019050919050565b600081519050919050565b600081519050919050565b600082825260208201905092915050565b600081905092915050565b600082825260208201905092915050565b600081905092915050565b6000614fd38261516b565b9150614fde8361516b565b9250826fffffffffffffffffffffffffffffffff038211156150035761500261532f565b5b828201905092915050565b6000615019826151b5565b9150615024836151b5565b9250827fffffffffffffffffffffffffffffffffffffffffffffffffffffffffffffffff038211156150595761505861532f565b5b828201905092915050565b600061506f826151b5565b915061507a836151b5565b92508261508a5761508961535e565b5b828204905092915050565b60006150a082615195565b91506150ab83615195565b92508173ffffffffffffffffffffffffffffffffffffffff04831182151516156150d8576150d761532f565b5b828202905092915050565b60006150ee826151b5565b91506150f9836151b5565b92508282101561510c5761510b61532f565b5b828203905092915050565b600061512282615195565b9050919050565b60008115159050919050565b6000819050919050565b60007fffffffff0000000000000000000000000000000000000000000000000000000082169050919050565b60006fffffffffffffffffffffffffffffffff82169050919050565b600061ffff82169050919050565b600073ffffffffffffffffffffffffffffffffffffffff82169050919050565b6000819050919050565b600063ffffffff82169050919050565b600060ff82169050919050565b82818337600083830152505050565b60005b838110156152095780820151818401526020810190506151ee565b83811115615218576000848401525b50505050565b6000615229826151b5565b9150600082141561523d5761523c61532f565b5b600182039050919050565b6000600282049050600182168061526057607f821691505b602082108114156152745761527361538d565b5b50919050565b615283826153eb565b810181811067ffffffffffffffff821117156152a2576152a16153bc565b5b80604052505050565b60006152b6826151b5565b91507fffffffffffffffffffffffffffffffffffffffffffffffffffffffffffffffff8214156152e9576152e861532f565b5b600182019050919050565b6000819050919050565b6000615309826151b5565b9150615314836151b5565b9250826153245761532361535e565b5b828206905092915050565b7f4e487b7100000000000000000000000000000000000000000000000000000000600052601160045260246000fd5b7f4e487b7100000000000000000000000000000000000000000000000000000000600052601260045260246000fd5b7f4e487b7100000000000000000000000000000000000000000000000000000000600052602260045260246000fd5b7f4e487b7100000000000000000000000000000000000000000000000000000000600052604160045260246000fd5b6000601f19601f8301169050919050565b7f45434453413a20696e76616c6964207369676e61747572650000000000000000600082015250565b7f455243373231413a206f776e657220696e646578206f7574206f6620626f756e60008201527f6473000000000000000000000000000000000000000000000000000000000000602082015250565b7f53657420657863656564206d617820737570706c790000000000000000000000600082015250565b7f45434453413a20696e76616c6964207369676e6174757265206c656e67746800600082015250565b7f4f776e61626c653a206e6577206f776e657220697320746865207a65726f206160008201527f6464726573730000000000000000000000000000000000000000000000000000602082015250565b7f457863656564207374616765206d617820737570706c79000000000000000000600082015250565b7f455243373231413a206f776e657220717565727920666f72206e6f6e6578697360008201527f74656e7420746f6b656e00000000000000000000000000000000000000000000602082015250565b7f1901000000000000000000000000000000000000000000000000000000000000600082015250565b7f43616e6e6f742073657420746f2070726576696f757320737461676500000000600082015250565b7f455243373231413a20676c6f62616c20696e646578206f7574206f6620626f7560008201527f6e64730000000000000000000000000000000000000000000000000000000000602082015250565b7f455243373231413a207472616e7366657220746f20746865207a65726f20616460008201527f6472657373000000000000000000000000000000000000000000000000000000602082015250565b7f4e6f7420656e6f7567682066756e640000000000000000000000000000000000600082015250565b7f53616c6520616c726561647920656e6465640000000000000000000000000000600082015250565b7f5075626c6963206d696e74206e6f742073746172746564000000000000000000600082015250565b7f416464726573733a20756e61626c6520746f2073656e642076616c75652c207260008201527f6563697069656e74206d61792068617665207265766572746564000000000000602082015250565b7f45434453413a20696e76616c6964207369676e6174757265202773272076616c60008201527f7565000000000000000000000000000000000000000000000000000000000000602082015250565b7f416464726573733a20696e73756666696369656e742062616c616e6365000000600082015250565b7f4e6f7420656e6f756768206d61784d696e74436f756e74000000000000000000600082015250565b7f53616c65206e6f74207374617274656400000000000000000000000000000000600082015250565b7f455243373231413a20617070726f76652063616c6c6572206973206e6f74206f60008201527f776e6572206e6f7220617070726f76656420666f7220616c6c00000000000000602082015250565b7f455243373231413a2062616c616e636520717565727920666f7220746865207a60008201527f65726f2061646472657373000000000000000000000000000000000000000000602082015250565b7f45434453413a20696e76616c6964207369676e6174757265202776272076616c60008201527f7565000000000000000000000000000000000000000000000000000000000000602082015250565b7f455243373231413a207472616e736665722066726f6d20696e636f727265637460008201527f206f776e65720000000000000000000000000000000000000000000000000000602082015250565b7f4f776e61626c653a2063616c6c6572206973206e6f7420746865206f776e6572600082015250565b7f45786365656420746f74616c20737570706c7900000000000000000000000000600082015250565b7f57726f6e67207374616765000000000000000000000000000000000000000000600082015250565b7f4552433732314d657461646174613a2055524920717565727920666f72206e6f60008201527f6e6578697374656e7420746f6b656e0000000000000000000000000000000000602082015250565b7f455243373231413a20617070726f766520746f2063616c6c6572000000000000600082015250565b7f455243373231413a207472616e736665722063616c6c6572206973206e6f742060008201527f6f776e6572206e6f7220617070726f7665640000000000000000000000000000602082015250565b7f5369676e617475726520696e76616c6964206f7220756e617574686f72697a6560008201527f6400000000000000000000000000000000000000000000000000000000000000602082015250565b7f455243373231413a20617070726f76616c20746f2063757272656e74206f776e60008201527f6572000000000000000000000000000000000000000000000000000000000000602082015250565b50565b7f455243373231413a207175616e74697479206d7573742062652067726561746560008201527f7220300000000000000000000000000000000000000000000000000000000000602082015250565b7f455243373231413a207472616e7366657220746f206e6f6e204552433732315260008201527f6563656976657220696d706c656d656e74657200000000000000000000000000602082015250565b7f455243373231413a20746f6b656e20616c7265616479206d696e746564000000600082015250565b7f455243373231413a206d696e7420746f20746865207a65726f2061646472657360008201527f7300000000000000000000000000000000000000000000000000000000000000602082015250565b7f455243373231413a20756e61626c6520746f2067657420746f6b656e206f662060008201527f6f776e657220627920696e646578000000000000000000000000000000000000602082015250565b7f5075626c69632069732066696e616c2073746167650000000000000000000000600082015250565b7f4e6f7420656e6f7567682066756e6420746f206d696e74204e46540000000000600082015250565b7f455243373231413a20617070726f76656420717565727920666f72206e6f6e6560008201527f78697374656e7420746f6b656e00000000000000000000000000000000000000602082015250565b615d3f81615117565b8114615d4a57600080fd5b50565b615d5681615129565b8114615d6157600080fd5b50565b615d6d8161513f565b8114615d7857600080fd5b50565b615d8481615187565b8114615d8f57600080fd5b50565b615d9b81615195565b8114615da657600080fd5b50565b615db2816151b5565b8114615dbd57600080fd5b50565b615dc9816151bf565b8114615dd457600080fd5b50565b615de0816151cf565b8114615deb57600080fd5b5056fea26469706673582212208325a46031a4b784d18893a68dc394dd7dac29739af72ef1d947fba3a65e30d264736f6c6343000804003368747470733a2f2f617277656176652e6e65742f5646333451574961494e4b6354654e587574444b2d4e426b4e4271566a356f3571656c6336455133476151",
  "linkReferences": {},
  "deployedLinkReferences": {}
}