{
  "_format": "hh-sol-artifact-1",
  "contractName": "TinaDAO",
  "sourceName": "contracts/TinaDAO.sol",
  "abi": [
    {
      "inputs": [
        {
          "internalType": "string",
          "name": "_name",
          "type": "string"
        },
        {
          "internalType": "string",
          "name": "_symbol",
          "type": "string"
        },
        {
          "components": [
            {
              "internalType": "uint8",
              "name": "stageId",
              "type": "uint8"
            },
            {
              "internalType": "uint16",
              "name": "maxSupply",
              "type": "uint16"
            },
            {
              "internalType": "uint32",
              "name": "startTime",
              "type": "uint32"
            },
            {
              "internalType": "uint32",
              "name": "endTime",
              "type": "uint32"
            },
            {
              "internalType": "uint160",
              "name": "mintPrice",
              "type": "uint160"
            }
          ],
          "internalType": "struct TinaDAO.StageInfo",
          "name": "_initStageInfo",
          "type": "tuple"
        },
        {
          "internalType": "string",
          "name": "_baseTokenURI",
          "type": "string"
        }
      ],
      "stateMutability": "nonpayable",
      "type": "constructor"
    },
    {
      "anonymous": false,
      "inputs": [
        {
          "indexed": true,
          "internalType": "address",
          "name": "owner",
          "type": "address"
        },
        {
          "indexed": true,
          "internalType": "address",
          "name": "approved",
          "type": "address"
        },
        {
          "indexed": true,
          "internalType": "uint256",
          "name": "tokenId",
          "type": "uint256"
        }
      ],
      "name": "Approval",
      "type": "event"
    },
    {
      "anonymous": false,
      "inputs": [
        {
          "indexed": true,
          "internalType": "address",
          "name": "owner",
          "type": "address"
        },
        {
          "indexed": true,
          "internalType": "address",
          "name": "operator",
          "type": "address"
        },
        {
          "indexed": false,
          "internalType": "bool",
          "name": "approved",
          "type": "bool"
        }
      ],
      "name": "ApprovalForAll",
      "type": "event"
    },
    {
      "anonymous": false,
      "inputs": [
        {
          "indexed": true,
          "internalType": "address",
          "name": "previousOwner",
          "type": "address"
        },
        {
          "indexed": true,
          "internalType": "address",
          "name": "newOwner",
          "type": "address"
        }
      ],
      "name": "OwnershipTransferred",
      "type": "event"
    },
    {
      "anonymous": false,
      "inputs": [
        {
          "indexed": true,
          "internalType": "address",
          "name": "from",
          "type": "address"
        },
        {
          "indexed": true,
          "internalType": "address",
          "name": "to",
          "type": "address"
        },
        {
          "indexed": true,
          "internalType": "uint256",
          "name": "tokenId",
          "type": "uint256"
        }
      ],
      "name": "Transfer",
      "type": "event"
    },
    {
      "inputs": [
        {
          "internalType": "address",
          "name": "to",
          "type": "address"
        },
        {
          "internalType": "uint256",
          "name": "tokenId",
          "type": "uint256"
        }
      ],
      "name": "approve",
      "outputs": [],
      "stateMutability": "nonpayable",
      "type": "function"
    },
    {
      "inputs": [
        {
          "internalType": "address",
          "name": "owner",
          "type": "address"
        }
      ],
      "name": "balanceOf",
      "outputs": [
        {
          "internalType": "uint256",
          "name": "",
          "type": "uint256"
        }
      ],
      "stateMutability": "view",
      "type": "function"
    },
    {
      "inputs": [],
      "name": "contractURI",
      "outputs": [
        {
          "internalType": "string",
          "name": "",
          "type": "string"
        }
      ],
      "stateMutability": "pure",
      "type": "function"
    },
    {
      "inputs": [
        {
          "internalType": "uint256",
          "name": "tokenId",
          "type": "uint256"
        }
      ],
      "name": "getApproved",
      "outputs": [
        {
          "internalType": "address",
          "name": "",
          "type": "address"
        }
      ],
      "stateMutability": "view",
      "type": "function"
    },
    {
      "inputs": [
        {
          "internalType": "address",
          "name": "owner",
          "type": "address"
        },
        {
          "internalType": "address",
          "name": "operator",
          "type": "address"
        }
      ],
      "name": "isApprovedForAll",
      "outputs": [
        {
          "internalType": "bool",
          "name": "",
          "type": "bool"
        }
      ],
      "stateMutability": "view",
      "type": "function"
    },
    {
      "inputs": [
        {
          "internalType": "uint256",
          "name": "quantity",
          "type": "uint256"
        }
      ],
      "name": "mint",
      "outputs": [],
      "stateMutability": "payable",
      "type": "function"
    },
    {
      "inputs": [],
      "name": "name",
      "outputs": [
        {
          "internalType": "string",
          "name": "",
          "type": "string"
        }
      ],
      "stateMutability": "view",
      "type": "function"
    },
    {
      "inputs": [
        {
          "components": [
            {
              "internalType": "uint8",
              "name": "stageId",
              "type": "uint8"
            },
            {
              "internalType": "uint16",
              "name": "maxSupply",
              "type": "uint16"
            },
            {
              "internalType": "uint32",
              "name": "startTime",
              "type": "uint32"
            },
            {
              "internalType": "uint32",
              "name": "endTime",
              "type": "uint32"
            },
            {
              "internalType": "uint160",
              "name": "mintPrice",
              "type": "uint160"
            }
          ],
          "internalType": "struct TinaDAO.StageInfo",
          "name": "_stageInfo",
          "type": "tuple"
        }
      ],
      "name": "nextStage",
      "outputs": [],
      "stateMutability": "nonpayable",
      "type": "function"
    },
    {
      "inputs": [],
      "name": "owner",
      "outputs": [
        {
          "internalType": "address",
          "name": "",
          "type": "address"
        }
      ],
      "stateMutability": "view",
      "type": "function"
    },
    {
      "inputs": [
        {
          "internalType": "uint256",
          "name": "tokenId",
          "type": "uint256"
        }
      ],
      "name": "ownerOf",
      "outputs": [
        {
          "internalType": "address",
          "name": "",
          "type": "address"
        }
      ],
      "stateMutability": "view",
      "type": "function"
    },
    {
      "inputs": [
        {
          "internalType": "uint8",
          "name": "amount",
          "type": "uint8"
        }
      ],
      "name": "publicMint",
      "outputs": [],
      "stateMutability": "payable",
      "type": "function"
    },
    {
      "inputs": [],
      "name": "renounceOwnership",
      "outputs": [],
      "stateMutability": "nonpayable",
      "type": "function"
    },
    {
      "inputs": [
        {
          "internalType": "address",
          "name": "to",
          "type": "address"
        },
        {
          "internalType": "uint256",
          "name": "amount",
          "type": "uint256"
        }
      ],
      "name": "reserve",
      "outputs": [],
      "stateMutability": "nonpayable",
      "type": "function"
    },
    {
      "inputs": [
        {
          "internalType": "address",
          "name": "from",
          "type": "address"
        },
        {
          "internalType": "address",
          "name": "to",
          "type": "address"
        },
        {
          "internalType": "uint256",
          "name": "tokenId",
          "type": "uint256"
        }
      ],
      "name": "safeTransferFrom",
      "outputs": [],
      "stateMutability": "nonpayable",
      "type": "function"
    },
    {
      "inputs": [
        {
          "internalType": "address",
          "name": "from",
          "type": "address"
        },
        {
          "internalType": "address",
          "name": "to",
          "type": "address"
        },
        {
          "internalType": "uint256",
          "name": "tokenId",
          "type": "uint256"
        },
        {
          "internalType": "bytes",
          "name": "_data",
          "type": "bytes"
        }
      ],
      "name": "safeTransferFrom",
      "outputs": [],
      "stateMutability": "nonpayable",
      "type": "function"
    },
    {
      "inputs": [
        {
          "internalType": "address",
          "name": "operator",
          "type": "address"
        },
        {
          "internalType": "bool",
          "name": "approved",
          "type": "bool"
        }
      ],
      "name": "setApprovalForAll",
      "outputs": [],
      "stateMutability": "nonpayable",
      "type": "function"
    },
    {
      "inputs": [],
      "name": "stageInfo",
      "outputs": [
        {
          "internalType": "uint8",
          "name": "stageId",
          "type": "uint8"
        },
        {
          "internalType": "uint16",
          "name": "maxSupply",
          "type": "uint16"
        },
        {
          "internalType": "uint32",
          "name": "startTime",
          "type": "uint32"
        },
        {
          "internalType": "uint32",
          "name": "endTime",
          "type": "uint32"
        },
        {
          "internalType": "uint160",
          "name": "mintPrice",
          "type": "uint160"
        }
      ],
      "stateMutability": "view",
      "type": "function"
    },
    {
      "inputs": [
        {
          "internalType": "bytes4",
          "name": "interfaceId",
          "type": "bytes4"
        }
      ],
      "name": "supportsInterface",
      "outputs": [
        {
          "internalType": "bool",
          "name": "",
          "type": "bool"
        }
      ],
      "stateMutability": "view",
      "type": "function"
    },
    {
      "inputs": [],
      "name": "symbol",
      "outputs": [
        {
          "internalType": "string",
          "name": "",
          "type": "string"
        }
      ],
      "stateMutability": "view",
      "type": "function"
    },
    {
      "inputs": [
        {
          "internalType": "uint256",
          "name": "index",
          "type": "uint256"
        }
      ],
      "name": "tokenByIndex",
      "outputs": [
        {
          "internalType": "uint256",
          "name": "",
          "type": "uint256"
        }
      ],
      "stateMutability": "view",
      "type": "function"
    },
    {
      "inputs": [
        {
          "internalType": "uint256",
          "name": "",
          "type": "uint256"
        }
      ],
      "name": "tokenIdToARTxId",
      "outputs": [
        {
          "internalType": "string",
          "name": "",
          "type": "string"
        }
      ],
      "stateMutability": "view",
      "type": "function"
    },
    {
      "inputs": [
        {
          "internalType": "address",
          "name": "owner",
          "type": "address"
        },
        {
          "internalType": "uint256",
          "name": "index",
          "type": "uint256"
        }
      ],
      "name": "tokenOfOwnerByIndex",
      "outputs": [
        {
          "internalType": "uint256",
          "name": "",
          "type": "uint256"
        }
      ],
      "stateMutability": "view",
      "type": "function"
    },
    {
      "inputs": [
        {
          "internalType": "uint256",
          "name": "tokenId",
          "type": "uint256"
        }
      ],
      "name": "tokenURI",
      "outputs": [
        {
          "internalType": "string",
          "name": "",
          "type": "string"
        }
      ],
      "stateMutability": "view",
      "type": "function"
    },
    {
      "inputs": [],
      "name": "totalSupply",
      "outputs": [
        {
          "internalType": "uint256",
          "name": "",
          "type": "uint256"
        }
      ],
      "stateMutability": "view",
      "type": "function"
    },
    {
      "inputs": [
        {
          "internalType": "address",
          "name": "from",
          "type": "address"
        },
        {
          "internalType": "address",
          "name": "to",
          "type": "address"
        },
        {
          "internalType": "uint256",
          "name": "tokenId",
          "type": "uint256"
        }
      ],
      "name": "transferFrom",
      "outputs": [],
      "stateMutability": "nonpayable",
      "type": "function"
    },
    {
      "inputs": [
        {
          "internalType": "address",
          "name": "newOwner",
          "type": "address"
        }
      ],
      "name": "transferOwnership",
      "outputs": [],
      "stateMutability": "nonpayable",
      "type": "function"
    },
    {
      "inputs": [
        {
          "components": [
            {
              "internalType": "address",
              "name": "redeemer",
              "type": "address"
            },
            {
              "internalType": "uint8",
              "name": "stageId",
              "type": "uint8"
            },
            {
              "internalType": "uint8",
              "name": "amount",
              "type": "uint8"
            }
          ],
          "internalType": "struct TinaDAO.NFTVoucher",
          "name": "voucher",
          "type": "tuple"
        },
        {
          "internalType": "bytes",
          "name": "signature",
          "type": "bytes"
        },
        {
          "internalType": "uint8",
          "name": "amount",
          "type": "uint8"
        }
      ],
      "name": "whitelistMint",
      "outputs": [],
      "stateMutability": "payable",
      "type": "function"
    },
    {
      "inputs": [],
      "name": "withdraw",
      "outputs": [],
      "stateMutability": "nonpayable",
      "type": "function"
    }
  ],
  "bytecode": "0x61014060405260006001553480156200001757600080fd5b50604051620061e3380380620061e383398181016040528101906200003d919062000583565b836040518060400160405280600181526020017f31000000000000000000000000000000000000000000000000000000000000008152508585620000966200008a6200026860201b60201c565b6200027060201b60201c565b8160029080519060200190620000ae92919062000370565b508060039080519060200190620000c792919062000370565b50505060008280519060200120905060008280519060200120905060007f8b73c3c69bb8fe3d512ecc4cf759cc79239f7b179b0ffacaa9a75d522b39400f90508260e081815250508161010081815250504660a08181525050620001338184846200033460201b60201c565b608081815250503073ffffffffffffffffffffffffffffffffffffffff1660c08173ffffffffffffffffffffffffffffffffffffffff1660601b81525050806101208181525050505050505081600860008201518160000160006101000a81548160ff021916908360ff16021790555060208201518160000160016101000a81548161ffff021916908361ffff16021790555060408201518160000160036101000a81548163ffffffff021916908363ffffffff16021790555060608201518160000160076101000a81548163ffffffff021916908363ffffffff160217905550608082015181600001600b6101000a81548173ffffffffffffffffffffffffffffffffffffffff021916908373ffffffffffffffffffffffffffffffffffffffff1602179055509050505050505062000916565b600033905090565b60008060009054906101000a900473ffffffffffffffffffffffffffffffffffffffff169050816000806101000a81548173ffffffffffffffffffffffffffffffffffffffff021916908373ffffffffffffffffffffffffffffffffffffffff1602179055508173ffffffffffffffffffffffffffffffffffffffff168173ffffffffffffffffffffffffffffffffffffffff167f8be0079c531659141344cd1fd0a4f28419497f9722a3daafe3b4186f6b6457e060405160405180910390a35050565b60008383834630604051602001620003519594939291906200066e565b6040516020818303038152906040528051906020012090509392505050565b8280546200037e90620007d3565b90600052602060002090601f016020900481019282620003a25760008555620003ee565b82601f10620003bd57805160ff1916838001178555620003ee565b82800160010185558215620003ee579182015b82811115620003ed578251825591602001919060010190620003d0565b5b509050620003fd919062000401565b5090565b5b808211156200041c57600081600090555060010162000402565b5090565b6000620004376200043184620006f4565b620006cb565b9050828152602081018484840111156200045057600080fd5b6200045d8482856200079d565b509392505050565b600082601f8301126200047757600080fd5b81516200048984826020860162000420565b91505092915050565b600060a08284031215620004a557600080fd5b620004b160a0620006cb565b90506000620004c3848285016200056c565b6000830152506020620004d9848285016200053e565b6020830152506040620004ef8482850162000555565b6040830152506060620005058482850162000555565b60608301525060806200051b8482850162000527565b60808301525092915050565b6000815190506200053881620008c8565b92915050565b6000815190506200054f81620008ae565b92915050565b6000815190506200056681620008e2565b92915050565b6000815190506200057d81620008fc565b92915050565b60008060008061010085870312156200059b57600080fd5b600085015167ffffffffffffffff811115620005b657600080fd5b620005c48782880162000465565b945050602085015167ffffffffffffffff811115620005e257600080fd5b620005f08782880162000465565b9350506040620006038782880162000492565b92505060e085015167ffffffffffffffff8111156200062157600080fd5b6200062f8782880162000465565b91505092959194509250565b62000646816200072a565b82525050565b62000657816200073e565b82525050565b620006688162000776565b82525050565b600060a0820190506200068560008301886200064c565b6200069460208301876200064c565b620006a360408301866200064c565b620006b260608301856200065d565b620006c160808301846200063b565b9695505050505050565b6000620006d7620006ea565b9050620006e5828262000809565b919050565b6000604051905090565b600067ffffffffffffffff8211156200071257620007116200086e565b5b6200071d826200089d565b9050602081019050919050565b6000620007378262000756565b9050919050565b6000819050919050565b600061ffff82169050919050565b600073ffffffffffffffffffffffffffffffffffffffff82169050919050565b6000819050919050565b600063ffffffff82169050919050565b600060ff82169050919050565b60005b83811015620007bd578082015181840152602081019050620007a0565b83811115620007cd576000848401525b50505050565b60006002820490506001821680620007ec57607f821691505b602082108114156200080357620008026200083f565b5b50919050565b62000814826200089d565b810181811067ffffffffffffffff821117156200083657620008356200086e565b5b80604052505050565b7f4e487b7100000000000000000000000000000000000000000000000000000000600052602260045260246000fd5b7f4e487b7100000000000000000000000000000000000000000000000000000000600052604160045260246000fd5b6000601f19601f8301169050919050565b620008b98162000748565b8114620008c557600080fd5b50565b620008d38162000756565b8114620008df57600080fd5b50565b620008ed8162000780565b8114620008f957600080fd5b50565b620009078162000790565b81146200091357600080fd5b50565b60805160a05160c05160601c60e051610100516101205161587a6200096960003960006130cd0152600061310f015260006130ee0152600061302301526000613079015260006130a2015261587a6000f3fe6080604052600436106101b75760003560e01c806370a08231116100ec578063ad1191fa1161008a578063cc47a40b11610064578063cc47a40b146105f7578063e8a3d48514610620578063e985e9c51461064b578063f2fde38b14610688576101b7565b8063ad1191fa14610568578063b88d4fde14610591578063c87b56dd146105ba576101b7565b80638da5cb5b116100c65780638da5cb5b146104cd57806395d89b41146104f8578063a0712d6814610523578063a22cb4651461053f576101b7565b806370a082311461045d578063715018a61461049a578063858e83b5146104b1576101b7565b80632bf87116116101595780633ccfd60b116101335780633ccfd60b146103a357806342842e0e146103ba5780634f6ccce7146103e35780636352211e14610420576101b7565b80632bf871161461031b5780632f745c591461034a5780633425e8ba14610387576101b7565b8063081812fc11610195578063081812fc14610261578063095ea7b31461029e57806318160ddd146102c757806323b872dd146102f2576101b7565b806301ffc9a7146101bc578063045efaab146101f957806306fdde0314610236575b600080fd5b3480156101c857600080fd5b506101e360048036038101906101de9190613ac8565b6106b1565b6040516101f091906143de565b60405180910390f35b34801561020557600080fd5b50610220600480360381019061021b9190613baf565b6107fb565b60405161022d91906144d6565b60405180910390f35b34801561024257600080fd5b5061024b61089b565b60405161025891906144d6565b60405180910390f35b34801561026d57600080fd5b5061028860048036038101906102839190613baf565b61092d565b6040516102959190614377565b60405180910390f35b3480156102aa57600080fd5b506102c560048036038101906102c09190613a8c565b6109b2565b005b3480156102d357600080fd5b506102dc610acb565b6040516102e99190614998565b60405180910390f35b3480156102fe57600080fd5b5061031960048036038101906103149190613986565b610ad5565b005b34801561032757600080fd5b50610330610ae5565b6040516103419594939291906149b3565b60405180910390f35b34801561035657600080fd5b50610371600480360381019061036c9190613a8c565b610b64565b60405161037e9190614998565b60405180910390f35b6103a1600480360381019061039c9190613b1a565b610d62565b005b3480156103af57600080fd5b506103b8611117565b005b3480156103c657600080fd5b506103e160048036038101906103dc9190613986565b6111a6565b005b3480156103ef57600080fd5b5061040a60048036038101906104059190613baf565b6111c6565b6040516104179190614998565b60405180910390f35b34801561042c57600080fd5b5061044760048036038101906104429190613baf565b611219565b6040516104549190614377565b60405180910390f35b34801561046957600080fd5b50610484600480360381019061047f9190613921565b61122f565b6040516104919190614998565b60405180910390f35b3480156104a657600080fd5b506104af611318565b005b6104cb60048036038101906104c69190613bd8565b6113a0565b005b3480156104d957600080fd5b506104e26115b8565b6040516104ef9190614377565b60405180910390f35b34801561050457600080fd5b5061050d6115e1565b60405161051a91906144d6565b60405180910390f35b61053d60048036038101906105389190613baf565b611673565b005b34801561054b57600080fd5b5061056660048036038101906105619190613a50565b611680565b005b34801561057457600080fd5b5061058f600480360381019061058a9190613b86565b611801565b005b34801561059d57600080fd5b506105b860048036038101906105b391906139d5565b611a5d565b005b3480156105c657600080fd5b506105e160048036038101906105dc9190613baf565b611ab9565b6040516105ee91906144d6565b60405180910390f35b34801561060357600080fd5b5061061e60048036038101906106199190613a8c565b611b6a565b005b34801561062c57600080fd5b50610635611c4f565b60405161064291906144d6565b60405180910390f35b34801561065757600080fd5b50610672600480360381019061066d919061394a565b611c6f565b60405161067f91906143de565b60405180910390f35b34801561069457600080fd5b506106af60048036038101906106aa9190613921565b611d03565b005b60007f80ac58cd000000000000000000000000000000000000000000000000000000007bffffffffffffffffffffffffffffffffffffffffffffffffffffffff1916827bffffffffffffffffffffffffffffffffffffffffffffffffffffffff1916148061077c57507f5b5e139f000000000000000000000000000000000000000000000000000000007bffffffffffffffffffffffffffffffffffffffffffffffffffffffff1916827bffffffffffffffffffffffffffffffffffffffffffffffffffffffff1916145b806107e457507f780e9d63000000000000000000000000000000000000000000000000000000007bffffffffffffffffffffffffffffffffffffffffffffffffffffffff1916827bffffffffffffffffffffffffffffffffffffffffffffffffffffffff1916145b806107f457506107f382611dfb565b5b9050919050565b600b602052806000526040600020600091509050805461081a90614d0e565b80601f016020809104026020016040519081016040528092919081815260200182805461084690614d0e565b80156108935780601f1061086857610100808354040283529160200191610893565b820191906000526020600020905b81548152906001019060200180831161087657829003601f168201915b505050505081565b6060600280546108aa90614d0e565b80601f01602080910402602001604051908101604052809291908181526020018280546108d690614d0e565b80156109235780601f106108f857610100808354040283529160200191610923565b820191906000526020600020905b81548152906001019060200180831161090657829003601f168201915b5050505050905090565b600061093882611e65565b610977576040517f08c379a000000000000000000000000000000000000000000000000000000000815260040161096e90614978565b60405180910390fd5b6006600083815260200190815260200160002060009054906101000a900473ffffffffffffffffffffffffffffffffffffffff169050919050565b60006109bd82611219565b90508073ffffffffffffffffffffffffffffffffffffffff168373ffffffffffffffffffffffffffffffffffffffff161415610a2e576040517f08c379a0000000000000000000000000000000000000000000000000000000008152600401610a2590614878565b60405180910390fd5b8073ffffffffffffffffffffffffffffffffffffffff16610a4d611e73565b73ffffffffffffffffffffffffffffffffffffffff161480610a7c5750610a7b81610a76611e73565b611c6f565b5b610abb576040517f08c379a0000000000000000000000000000000000000000000000000000000008152600401610ab290614718565b60405180910390fd5b610ac6838383611e7b565b505050565b6000600154905090565b610ae0838383611f2d565b505050565b60088060000160009054906101000a900460ff16908060000160019054906101000a900461ffff16908060000160039054906101000a900463ffffffff16908060000160079054906101000a900463ffffffff169080600001600b9054906101000a900473ffffffffffffffffffffffffffffffffffffffff16905085565b6000610b6f8361122f565b8210610bb0576040517f08c379a0000000000000000000000000000000000000000000000000000000008152600401610ba790614518565b60405180910390fd5b6000610bba610acb565b905060008060005b83811015610d20576000600460008381526020019081526020016000206040518060400160405290816000820160009054906101000a900473ffffffffffffffffffffffffffffffffffffffff1673ffffffffffffffffffffffffffffffffffffffff1673ffffffffffffffffffffffffffffffffffffffff1681526020016000820160149054906101000a900467ffffffffffffffff1667ffffffffffffffff1667ffffffffffffffff16815250509050600073ffffffffffffffffffffffffffffffffffffffff16816000015173ffffffffffffffffffffffffffffffffffffffff1614610cb457806000015192505b8773ffffffffffffffffffffffffffffffffffffffff168373ffffffffffffffffffffffffffffffffffffffff161415610d0c5786841415610cfd578195505050505050610d5c565b8380610d0890614d71565b9450505b508080610d1890614d71565b915050610bc2565b506040517f08c379a0000000000000000000000000000000000000000000000000000000008152600401610d5390614938565b60405180910390fd5b92915050565b6000600a6000610d70611e73565b73ffffffffffffffffffffffffffffffffffffffff1673ffffffffffffffffffffffffffffffffffffffff1681526020019081526020016000209050600860000160009054906101000a900460ff1660ff168160000160009054906101000a900460ff1660ff161015610eb357610de88585856124d4565b600860000160009054906101000a900460ff1660ff16856020016020810190610e119190613bd8565b60ff1614610e54576040517f08c379a0000000000000000000000000000000000000000000000000000000008152600401610e4b906147d8565b60405180910390fd5b846020016020810190610e679190613bd8565b8160000160006101000a81548160ff021916908360ff160217905550846040016020810190610e969190613bd8565b8160000160016101000a81548160ff021916908360ff1602179055505b600860000160039054906101000a900463ffffffff1663ffffffff16421015610f11576040517f08c379a0000000000000000000000000000000000000000000000000000000008152600401610f08906146f8565b60405180910390fd5b600860000160079054906101000a900463ffffffff1663ffffffff16421115610f6f576040517f08c379a0000000000000000000000000000000000000000000000000000000008152600401610f6690614658565b60405180910390fd5b8060000160019054906101000a900460ff1660ff168260ff161115610fc9576040517f08c379a0000000000000000000000000000000000000000000000000000000008152600401610fc090614858565b60405180910390fd5b600860000160019054906101000a900461ffff1661ffff168260ff16610fed610acb565b610ff79190614b05565b1115611038576040517f08c379a000000000000000000000000000000000000000000000000000000000815260040161102f90614598565b60405180910390fd5b8160ff166008600001600b9054906101000a900473ffffffffffffffffffffffffffffffffffffffff1661106c9190614b5b565b73ffffffffffffffffffffffffffffffffffffffff163410156110c4576040517f08c379a00000000000000000000000000000000000000000000000000000000081526004016110bb90614638565b60405180910390fd5b6110d86110cf611e73565b8360ff16612620565b818160000160018282829054906101000a900460ff166110f89190614ba9565b92506101000a81548160ff021916908360ff1602179055505050505050565b61111f611e73565b73ffffffffffffffffffffffffffffffffffffffff1661113d6115b8565b73ffffffffffffffffffffffffffffffffffffffff1614611193576040517f08c379a000000000000000000000000000000000000000000000000000000000815260040161118a90614798565b60405180910390fd5b6111a461119e6115b8565b4761263e565b565b6111c183838360405180602001604052806000815250611a5d565b505050565b60006111d0610acb565b8210611211576040517f08c379a0000000000000000000000000000000000000000000000000000000008152600401611208906145f8565b60405180910390fd5b819050919050565b600061122482612732565b600001519050919050565b60008073ffffffffffffffffffffffffffffffffffffffff168273ffffffffffffffffffffffffffffffffffffffff1614156112a0576040517f08c379a000000000000000000000000000000000000000000000000000000000815260040161129790614738565b60405180910390fd5b600560008373ffffffffffffffffffffffffffffffffffffffff1673ffffffffffffffffffffffffffffffffffffffff16815260200190815260200160002060000160009054906101000a90046fffffffffffffffffffffffffffffffff166fffffffffffffffffffffffffffffffff169050919050565b611320611e73565b73ffffffffffffffffffffffffffffffffffffffff1661133e6115b8565b73ffffffffffffffffffffffffffffffffffffffff1614611394576040517f08c379a000000000000000000000000000000000000000000000000000000000815260040161138b90614798565b60405180910390fd5b61139e600061288d565b565b600260ff16600860000160009054906101000a900460ff1660ff16146113fb576040517f08c379a00000000000000000000000000000000000000000000000000000000081526004016113f290614678565b60405180910390fd5b600860000160039054906101000a900463ffffffff1663ffffffff16421015611459576040517f08c379a0000000000000000000000000000000000000000000000000000000008152600401611450906146f8565b60405180910390fd5b600860000160079054906101000a900463ffffffff1663ffffffff164211156114b7576040517f08c379a00000000000000000000000000000000000000000000000000000000081526004016114ae90614658565b60405180910390fd5b6103e761ffff168160ff166114ca610acb565b6114d49190614b05565b1115611515576040517f08c379a000000000000000000000000000000000000000000000000000000000815260040161150c906147b8565b60405180910390fd5b8060ff166008600001600b9054906101000a900473ffffffffffffffffffffffffffffffffffffffff166115499190614b5b565b73ffffffffffffffffffffffffffffffffffffffff163410156115a1576040517f08c379a000000000000000000000000000000000000000000000000000000000815260040161159890614638565b60405180910390fd5b6115b56115ac611e73565b8260ff16612620565b50565b60008060009054906101000a900473ffffffffffffffffffffffffffffffffffffffff16905090565b6060600380546115f090614d0e565b80601f016020809104026020016040519081016040528092919081815260200182805461161c90614d0e565b80156116695780601f1061163e57610100808354040283529160200191611669565b820191906000526020600020905b81548152906001019060200180831161164c57829003601f168201915b5050505050905090565b61167d3382612620565b50565b611688611e73565b73ffffffffffffffffffffffffffffffffffffffff168273ffffffffffffffffffffffffffffffffffffffff1614156116f6576040517f08c379a00000000000000000000000000000000000000000000000000000000081526004016116ed90614818565b60405180910390fd5b8060076000611703611e73565b73ffffffffffffffffffffffffffffffffffffffff1673ffffffffffffffffffffffffffffffffffffffff16815260200190815260200160002060008473ffffffffffffffffffffffffffffffffffffffff1673ffffffffffffffffffffffffffffffffffffffff16815260200190815260200160002060006101000a81548160ff0219169083151502179055508173ffffffffffffffffffffffffffffffffffffffff166117b0611e73565b73ffffffffffffffffffffffffffffffffffffffff167f17307eab39ab6107e8899845ad3d59bd9653f200f220920489ca2b5937696c31836040516117f591906143de565b60405180910390a35050565b611809611e73565b73ffffffffffffffffffffffffffffffffffffffff166118276115b8565b73ffffffffffffffffffffffffffffffffffffffff161461187d576040517f08c379a000000000000000000000000000000000000000000000000000000000815260040161187490614798565b60405180910390fd5b600860000160009054906101000a900460ff1660ff16816000015160ff1610156118dc576040517f08c379a00000000000000000000000000000000000000000000000000000000081526004016118d3906145d8565b60405180910390fd5b6103e761ffff16816020015161ffff16111561192d576040517f08c379a000000000000000000000000000000000000000000000000000000000815260040161192490614538565b60405180910390fd5b600260ff16816000015160ff16111561197b576040517f08c379a000000000000000000000000000000000000000000000000000000000815260040161197290614958565b60405180910390fd5b80600860008201518160000160006101000a81548160ff021916908360ff16021790555060208201518160000160016101000a81548161ffff021916908361ffff16021790555060408201518160000160036101000a81548163ffffffff021916908363ffffffff16021790555060608201518160000160076101000a81548163ffffffff021916908363ffffffff160217905550608082015181600001600b6101000a81548173ffffffffffffffffffffffffffffffffffffffff021916908373ffffffffffffffffffffffffffffffffffffffff16021790555090505050565b611a68848484611f2d565b611a7484848484612951565b611ab3576040517f08c379a0000000000000000000000000000000000000000000000000000000008152600401611aaa906148b8565b60405180910390fd5b50505050565b6060611ac482611e65565b611b03576040517f08c379a0000000000000000000000000000000000000000000000000000000008152600401611afa906147f8565b60405180910390fd5b6000611b0d612ae8565b90506000815111611b2d5760405180602001604052806000815250611b62565b80600b6000858152602001908152602001600020604051602001611b52929190614307565b6040516020818303038152906040525b915050919050565b611b72611e73565b73ffffffffffffffffffffffffffffffffffffffff16611b906115b8565b73ffffffffffffffffffffffffffffffffffffffff1614611be6576040517f08c379a0000000000000000000000000000000000000000000000000000000008152600401611bdd90614798565b60405180910390fd5b6103e761ffff1681611bf6610acb565b611c009190614b05565b1115611c41576040517f08c379a0000000000000000000000000000000000000000000000000000000008152600401611c38906147b8565b60405180910390fd5b611c4b8282612620565b5050565b60606040518060600160405280603f8152602001615806603f9139905090565b6000600760008473ffffffffffffffffffffffffffffffffffffffff1673ffffffffffffffffffffffffffffffffffffffff16815260200190815260200160002060008373ffffffffffffffffffffffffffffffffffffffff1673ffffffffffffffffffffffffffffffffffffffff16815260200190815260200160002060009054906101000a900460ff16905092915050565b611d0b611e73565b73ffffffffffffffffffffffffffffffffffffffff16611d296115b8565b73ffffffffffffffffffffffffffffffffffffffff1614611d7f576040517f08c379a0000000000000000000000000000000000000000000000000000000008152600401611d7690614798565b60405180910390fd5b600073ffffffffffffffffffffffffffffffffffffffff168173ffffffffffffffffffffffffffffffffffffffff161415611def576040517f08c379a0000000000000000000000000000000000000000000000000000000008152600401611de690614578565b60405180910390fd5b611df88161288d565b50565b60007f01ffc9a7000000000000000000000000000000000000000000000000000000007bffffffffffffffffffffffffffffffffffffffffffffffffffffffff1916827bffffffffffffffffffffffffffffffffffffffffffffffffffffffff1916149050919050565b600060015482109050919050565b600033905090565b826006600084815260200190815260200160002060006101000a81548173ffffffffffffffffffffffffffffffffffffffff021916908373ffffffffffffffffffffffffffffffffffffffff160217905550818373ffffffffffffffffffffffffffffffffffffffff168273ffffffffffffffffffffffffffffffffffffffff167f8c5be1e5ebec7d5bd14f71427d1e84f3dd0314c0f7b2291e5b200ac8c7c3b92560405160405180910390a4505050565b6000611f3882612732565b90506000816000015173ffffffffffffffffffffffffffffffffffffffff16611f5f611e73565b73ffffffffffffffffffffffffffffffffffffffff161480611fbb5750611f84611e73565b73ffffffffffffffffffffffffffffffffffffffff16611fa38461092d565b73ffffffffffffffffffffffffffffffffffffffff16145b80611fd75750611fd68260000151611fd1611e73565b611c6f565b5b905080612019576040517f08c379a000000000000000000000000000000000000000000000000000000000815260040161201090614838565b60405180910390fd5b8473ffffffffffffffffffffffffffffffffffffffff16826000015173ffffffffffffffffffffffffffffffffffffffff161461208b576040517f08c379a000000000000000000000000000000000000000000000000000000000815260040161208290614778565b60405180910390fd5b600073ffffffffffffffffffffffffffffffffffffffff168473ffffffffffffffffffffffffffffffffffffffff1614156120fb576040517f08c379a00000000000000000000000000000000000000000000000000000000081526004016120f290614618565b60405180910390fd5b6121088585856001612aff565b6121186000848460000151611e7b565b6001600560008773ffffffffffffffffffffffffffffffffffffffff1673ffffffffffffffffffffffffffffffffffffffff16815260200190815260200160002060000160008282829054906101000a90046fffffffffffffffffffffffffffffffff160392506101000a8154816fffffffffffffffffffffffffffffffff02191690836fffffffffffffffffffffffffffffffff1602179055506001600560008673ffffffffffffffffffffffffffffffffffffffff1673ffffffffffffffffffffffffffffffffffffffff16815260200190815260200160002060000160008282829054906101000a90046fffffffffffffffffffffffffffffffff160192506101000a8154816fffffffffffffffffffffffffffffffff02191690836fffffffffffffffffffffffffffffffff16021790555060405180604001604052808573ffffffffffffffffffffffffffffffffffffffff1681526020014267ffffffffffffffff168152506004600085815260200190815260200160002060008201518160000160006101000a81548173ffffffffffffffffffffffffffffffffffffffff021916908373ffffffffffffffffffffffffffffffffffffffff16021790555060208201518160000160146101000a81548167ffffffffffffffff021916908367ffffffffffffffff160217905550905050600060018461231e9190614b05565b9050600073ffffffffffffffffffffffffffffffffffffffff166004600083815260200190815260200160002060000160009054906101000a900473ffffffffffffffffffffffffffffffffffffffff1673ffffffffffffffffffffffffffffffffffffffff1614156124645761239481611e65565b15612463576040518060400160405280846000015173ffffffffffffffffffffffffffffffffffffffff168152602001846020015167ffffffffffffffff168152506004600083815260200190815260200160002060008201518160000160006101000a81548173ffffffffffffffffffffffffffffffffffffffff021916908373ffffffffffffffffffffffffffffffffffffffff16021790555060208201518160000160146101000a81548167ffffffffffffffff021916908367ffffffffffffffff1602179055509050505b5b838573ffffffffffffffffffffffffffffffffffffffff168773ffffffffffffffffffffffffffffffffffffffff167fddf252ad1be2c89b69c2b068fc378daa952ba7f163c4a11628f55a4df523b3ef60405160405180910390a46124cc8686866001612b05565b505050505050565b60006125567f56fc50411139d37d603be8c646a514a74d727c7be5c2dc1f9c0606059fa1c7c9612502611e73565b8660200160208101906125159190613bd8565b8760400160208101906125289190613bd8565b60405160200161253b94939291906143f9565b60405160208183030381529060405280519060200120612b0b565b90506125a68184848080601f016020809104026020016040519081016040528093929190818152602001838380828437600081840152601f19601f82011690508083019250505050505050612b25565b73ffffffffffffffffffffffffffffffffffffffff166125c46115b8565b73ffffffffffffffffffffffffffffffffffffffff161461261a576040517f08c379a0000000000000000000000000000000000000000000000000000000008152600401612611906148f8565b60405180910390fd5b50505050565b61263a828260405180602001604052806000815250612b4c565b5050565b80471015612681576040517f08c379a0000000000000000000000000000000000000000000000000000000008152600401612678906146d8565b60405180910390fd5b60008273ffffffffffffffffffffffffffffffffffffffff16826040516126a790614362565b60006040518083038185875af1925050503d80600081146126e4576040519150601f19603f3d011682016040523d82523d6000602084013e6126e9565b606091505b505090508061272d576040517f08c379a000000000000000000000000000000000000000000000000000000000815260040161272490614698565b60405180910390fd5b505050565b61273a6136d5565b61274382611e65565b612782576040517f08c379a0000000000000000000000000000000000000000000000000000000008152600401612779906145b8565b60405180910390fd5b60008290505b6000600460008381526020019081526020016000206040518060400160405290816000820160009054906101000a900473ffffffffffffffffffffffffffffffffffffffff1673ffffffffffffffffffffffffffffffffffffffff1673ffffffffffffffffffffffffffffffffffffffff1681526020016000820160149054906101000a900467ffffffffffffffff1667ffffffffffffffff1667ffffffffffffffff16815250509050600073ffffffffffffffffffffffffffffffffffffffff16816000015173ffffffffffffffffffffffffffffffffffffffff1614612874578092505050612888565b50808061288090614ce4565b915050612788565b919050565b60008060009054906101000a900473ffffffffffffffffffffffffffffffffffffffff169050816000806101000a81548173ffffffffffffffffffffffffffffffffffffffff021916908373ffffffffffffffffffffffffffffffffffffffff1602179055508173ffffffffffffffffffffffffffffffffffffffff168173ffffffffffffffffffffffffffffffffffffffff167f8be0079c531659141344cd1fd0a4f28419497f9722a3daafe3b4186f6b6457e060405160405180910390a35050565b60006129728473ffffffffffffffffffffffffffffffffffffffff1661300c565b15612adb578373ffffffffffffffffffffffffffffffffffffffff1663150b7a0261299b611e73565b8786866040518563ffffffff1660e01b81526004016129bd9493929190614392565b602060405180830381600087803b1580156129d757600080fd5b505af1925050508015612a0857506040513d601f19601f82011682018060405250810190612a059190613af1565b60015b612a8b573d8060008114612a38576040519150601f19603f3d011682016040523d82523d6000602084013e612a3d565b606091505b50600081511415612a83576040517f08c379a0000000000000000000000000000000000000000000000000000000008152600401612a7a906148b8565b60405180910390fd5b805181602001fd5b63150b7a0260e01b7bffffffffffffffffffffffffffffffffffffffffffffffffffffffff1916817bffffffffffffffffffffffffffffffffffffffffffffffffffffffff191614915050612ae0565b600190505b949350505050565b606060405180602001604052806000815250905090565b50505050565b50505050565b6000612b1e612b1861301f565b83613139565b9050919050565b6000806000612b34858561316c565b91509150612b41816131ef565b819250505092915050565b60006001549050600073ffffffffffffffffffffffffffffffffffffffff168473ffffffffffffffffffffffffffffffffffffffff161415612bc3576040517f08c379a0000000000000000000000000000000000000000000000000000000008152600401612bba90614918565b60405180910390fd5b612bcc81611e65565b15612c0c576040517f08c379a0000000000000000000000000000000000000000000000000000000008152600401612c03906148d8565b60405180910390fd5b60008311612c4f576040517f08c379a0000000000000000000000000000000000000000000000000000000008152600401612c4690614898565b60405180910390fd5b612c5c6000858386612aff565b6000600560008673ffffffffffffffffffffffffffffffffffffffff1673ffffffffffffffffffffffffffffffffffffffff1681526020019081526020016000206040518060400160405290816000820160009054906101000a90046fffffffffffffffffffffffffffffffff166fffffffffffffffffffffffffffffffff166fffffffffffffffffffffffffffffffff1681526020016000820160109054906101000a90046fffffffffffffffffffffffffffffffff166fffffffffffffffffffffffffffffffff166fffffffffffffffffffffffffffffffff168152505090506040518060400160405280858360000151612d599190614abf565b6fffffffffffffffffffffffffffffffff168152602001858360200151612d809190614abf565b6fffffffffffffffffffffffffffffffff16815250600560008773ffffffffffffffffffffffffffffffffffffffff1673ffffffffffffffffffffffffffffffffffffffff16815260200190815260200160002060008201518160000160006101000a8154816fffffffffffffffffffffffffffffffff02191690836fffffffffffffffffffffffffffffffff16021790555060208201518160000160106101000a8154816fffffffffffffffffffffffffffffffff02191690836fffffffffffffffffffffffffffffffff16021790555090505060405180604001604052808673ffffffffffffffffffffffffffffffffffffffff1681526020014267ffffffffffffffff168152506004600084815260200190815260200160002060008201518160000160006101000a81548173ffffffffffffffffffffffffffffffffffffffff021916908373ffffffffffffffffffffffffffffffffffffffff16021790555060208201518160000160146101000a81548167ffffffffffffffff021916908367ffffffffffffffff160217905550905050600082905060005b85811015612fef57818773ffffffffffffffffffffffffffffffffffffffff16600073ffffffffffffffffffffffffffffffffffffffff167fddf252ad1be2c89b69c2b068fc378daa952ba7f163c4a11628f55a4df523b3ef60405160405180910390a4612f8f6000888488612951565b612fce576040517f08c379a0000000000000000000000000000000000000000000000000000000008152600401612fc5906148b8565b60405180910390fd5b8180612fd990614d71565b9250508080612fe790614d71565b915050612f1e565b50806001819055506130046000878588612b05565b505050505050565b600080823b905060008111915050919050565b60007f000000000000000000000000000000000000000000000000000000000000000073ffffffffffffffffffffffffffffffffffffffff163073ffffffffffffffffffffffffffffffffffffffff1614801561309b57507f000000000000000000000000000000000000000000000000000000000000000046145b156130c8577f00000000000000000000000000000000000000000000000000000000000000009050613136565b6131337f00000000000000000000000000000000000000000000000000000000000000007f00000000000000000000000000000000000000000000000000000000000000007f0000000000000000000000000000000000000000000000000000000000000000613540565b90505b90565b6000828260405160200161314e92919061432b565b60405160208183030381529060405280519060200120905092915050565b6000806041835114156131ae5760008060006020860151925060408601519150606086015160001a90506131a28782858561357a565b945094505050506131e8565b6040835114156131df5760008060208501519150604085015190506131d4868383613687565b9350935050506131e8565b60006002915091505b9250929050565b60006004811115613229577f4e487b7100000000000000000000000000000000000000000000000000000000600052602160045260246000fd5b816004811115613262577f4e487b7100000000000000000000000000000000000000000000000000000000600052602160045260246000fd5b141561326d5761353d565b600160048111156132a7577f4e487b7100000000000000000000000000000000000000000000000000000000600052602160045260246000fd5b8160048111156132e0577f4e487b7100000000000000000000000000000000000000000000000000000000600052602160045260246000fd5b1415613321576040517f08c379a0000000000000000000000000000000000000000000000000000000008152600401613318906144f8565b60405180910390fd5b6002600481111561335b577f4e487b7100000000000000000000000000000000000000000000000000000000600052602160045260246000fd5b816004811115613394577f4e487b7100000000000000000000000000000000000000000000000000000000600052602160045260246000fd5b14156133d5576040517f08c379a00000000000000000000000000000000000000000000000000000000081526004016133cc90614558565b60405180910390fd5b6003600481111561340f577f4e487b7100000000000000000000000000000000000000000000000000000000600052602160045260246000fd5b816004811115613448577f4e487b7100000000000000000000000000000000000000000000000000000000600052602160045260246000fd5b1415613489576040517f08c379a0000000000000000000000000000000000000000000000000000000008152600401613480906146b8565b60405180910390fd5b6004808111156134c2577f4e487b7100000000000000000000000000000000000000000000000000000000600052602160045260246000fd5b8160048111156134fb577f4e487b7100000000000000000000000000000000000000000000000000000000600052602160045260246000fd5b141561353c576040517f08c379a000000000000000000000000000000000000000000000000000000000815260040161353390614758565b60405180910390fd5b5b50565b6000838383463060405160200161355b95949392919061443e565b6040516020818303038152906040528051906020012090509392505050565b6000807f7fffffffffffffffffffffffffffffff5d576e7357a4501ddfe92f46681b20a08360001c11156135b557600060039150915061367e565b601b8560ff16141580156135cd5750601c8560ff1614155b156135df57600060049150915061367e565b6000600187878787604051600081526020016040526040516136049493929190614491565b6020604051602081039080840390855afa158015613626573d6000803e3d6000fd5b505050602060405103519050600073ffffffffffffffffffffffffffffffffffffffff168173ffffffffffffffffffffffffffffffffffffffff1614156136755760006001925092505061367e565b80600092509250505b94509492505050565b6000806000807f7fffffffffffffffffffffffffffffffffffffffffffffffffffffffffffffff85169150601b8560ff1c0190506136c78782888561357a565b935093505050935093915050565b6040518060400160405280600073ffffffffffffffffffffffffffffffffffffffff168152602001600067ffffffffffffffff1681525090565b600061372261371d84614a2b565b614a06565b90508281526020810184848401111561373a57600080fd5b613745848285614ca2565b509392505050565b60008135905061375c8161574d565b92915050565b60008135905061377181615764565b92915050565b6000813590506137868161577b565b92915050565b60008151905061379b8161577b565b92915050565b60008083601f8401126137b357600080fd5b8235905067ffffffffffffffff8111156137cc57600080fd5b6020830191508360018202830111156137e457600080fd5b9250929050565b600082601f8301126137fc57600080fd5b813561380c84826020860161370f565b91505092915050565b60006060828403121561382757600080fd5b81905092915050565b600060a0828403121561384257600080fd5b61384c60a0614a06565b9050600061385c8482850161390c565b6000830152506020613870848285016138b8565b6020830152506040613884848285016138f7565b6040830152506060613898848285016138f7565b60608301525060806138ac848285016138cd565b60808301525092915050565b6000813590506138c781615792565b92915050565b6000813590506138dc816157a9565b92915050565b6000813590506138f1816157c0565b92915050565b600081359050613906816157d7565b92915050565b60008135905061391b816157ee565b92915050565b60006020828403121561393357600080fd5b60006139418482850161374d565b91505092915050565b6000806040838503121561395d57600080fd5b600061396b8582860161374d565b925050602061397c8582860161374d565b9150509250929050565b60008060006060848603121561399b57600080fd5b60006139a98682870161374d565b93505060206139ba8682870161374d565b92505060406139cb868287016138e2565b9150509250925092565b600080600080608085870312156139eb57600080fd5b60006139f98782880161374d565b9450506020613a0a8782880161374d565b9350506040613a1b878288016138e2565b925050606085013567ffffffffffffffff811115613a3857600080fd5b613a44878288016137eb565b91505092959194509250565b60008060408385031215613a6357600080fd5b6000613a718582860161374d565b9250506020613a8285828601613762565b9150509250929050565b60008060408385031215613a9f57600080fd5b6000613aad8582860161374d565b9250506020613abe858286016138e2565b9150509250929050565b600060208284031215613ada57600080fd5b6000613ae884828501613777565b91505092915050565b600060208284031215613b0357600080fd5b6000613b118482850161378c565b91505092915050565b60008060008060a08587031215613b3057600080fd5b6000613b3e87828801613815565b945050606085013567ffffffffffffffff811115613b5b57600080fd5b613b67878288016137a1565b93509350506080613b7a8782880161390c565b91505092959194509250565b600060a08284031215613b9857600080fd5b6000613ba684828501613830565b91505092915050565b600060208284031215613bc157600080fd5b6000613bcf848285016138e2565b91505092915050565b600060208284031215613bea57600080fd5b6000613bf88482850161390c565b91505092915050565b613c0a81614bdd565b82525050565b613c1981614bef565b82525050565b613c2881614bfb565b82525050565b613c3f613c3a82614bfb565b614dba565b82525050565b6000613c5082614a71565b613c5a8185614a87565b9350613c6a818560208601614cb1565b613c7381614e51565b840191505092915050565b6000613c8982614a7c565b613c938185614aa3565b9350613ca3818560208601614cb1565b613cac81614e51565b840191505092915050565b6000613cc282614a7c565b613ccc8185614ab4565b9350613cdc818560208601614cb1565b80840191505092915050565b60008154613cf581614d0e565b613cff8186614ab4565b94506001821660008114613d1a5760018114613d2b57613d5e565b60ff19831686528186019350613d5e565b613d3485614a5c565b60005b83811015613d5657815481890152600182019150602081019050613d37565b838801955050505b50505092915050565b6000613d74601883614aa3565b9150613d7f82614e62565b602082019050919050565b6000613d97602283614aa3565b9150613da282614e8b565b604082019050919050565b6000613dba601583614aa3565b9150613dc582614eda565b602082019050919050565b6000613ddd601f83614aa3565b9150613de882614f03565b602082019050919050565b6000613e00602683614aa3565b9150613e0b82614f2c565b604082019050919050565b6000613e23601783614aa3565b9150613e2e82614f7b565b602082019050919050565b6000613e46602a83614aa3565b9150613e5182614fa4565b604082019050919050565b6000613e69600283614ab4565b9150613e7482614ff3565b600282019050919050565b6000613e8c601c83614aa3565b9150613e978261501c565b602082019050919050565b6000613eaf602383614aa3565b9150613eba82615045565b604082019050919050565b6000613ed2602583614aa3565b9150613edd82615094565b604082019050919050565b6000613ef5600f83614aa3565b9150613f00826150e3565b602082019050919050565b6000613f18601283614aa3565b9150613f238261510c565b602082019050919050565b6000613f3b601783614aa3565b9150613f4682615135565b602082019050919050565b6000613f5e603a83614aa3565b9150613f698261515e565b604082019050919050565b6000613f81602283614aa3565b9150613f8c826151ad565b604082019050919050565b6000613fa4601d83614aa3565b9150613faf826151fc565b602082019050919050565b6000613fc7601083614aa3565b9150613fd282615225565b602082019050919050565b6000613fea603983614aa3565b9150613ff58261524e565b604082019050919050565b600061400d602b83614aa3565b91506140188261529d565b604082019050919050565b6000614030602283614aa3565b915061403b826152ec565b604082019050919050565b6000614053602683614aa3565b915061405e8261533b565b604082019050919050565b6000614076602083614aa3565b91506140818261538a565b602082019050919050565b6000614099601383614aa3565b91506140a4826153b3565b602082019050919050565b60006140bc600b83614aa3565b91506140c7826153dc565b602082019050919050565b60006140df602f83614aa3565b91506140ea82615405565b604082019050919050565b6000614102601a83614aa3565b915061410d82615454565b602082019050919050565b6000614125603283614aa3565b91506141308261547d565b604082019050919050565b6000614148601183614aa3565b9150614153826154cc565b602082019050919050565b600061416b602283614aa3565b9150614176826154f5565b604082019050919050565b600061418e600083614a98565b915061419982615544565b600082019050919050565b60006141b1602383614aa3565b91506141bc82615547565b604082019050919050565b60006141d4603383614aa3565b91506141df82615596565b604082019050919050565b60006141f7601d83614aa3565b9150614202826155e5565b602082019050919050565b600061421a601783614aa3565b91506142258261560e565b602082019050919050565b600061423d602183614aa3565b915061424882615637565b604082019050919050565b6000614260602e83614aa3565b915061426b82615686565b604082019050919050565b6000614283601583614aa3565b915061428e826156d5565b602082019050919050565b60006142a6602d83614aa3565b91506142b1826156fe565b604082019050919050565b6142c581614c5b565b82525050565b6142d481614c4d565b82525050565b6142e381614c7b565b82525050565b6142f281614c85565b82525050565b61430181614c95565b82525050565b60006143138285613cb7565b915061431f8284613ce8565b91508190509392505050565b600061433682613e5c565b91506143428285613c2e565b6020820191506143528284613c2e565b6020820191508190509392505050565b600061436d82614181565b9150819050919050565b600060208201905061438c6000830184613c01565b92915050565b60006080820190506143a76000830187613c01565b6143b46020830186613c01565b6143c160408301856142da565b81810360608301526143d38184613c45565b905095945050505050565b60006020820190506143f36000830184613c10565b92915050565b600060808201905061440e6000830187613c1f565b61441b6020830186613c01565b61442860408301856142f8565b61443560608301846142f8565b95945050505050565b600060a0820190506144536000830188613c1f565b6144606020830187613c1f565b61446d6040830186613c1f565b61447a60608301856142da565b6144876080830184613c01565b9695505050505050565b60006080820190506144a66000830187613c1f565b6144b360208301866142f8565b6144c06040830185613c1f565b6144cd6060830184613c1f565b95945050505050565b600060208201905081810360008301526144f08184613c7e565b905092915050565b6000602082019050818103600083015261451181613d67565b9050919050565b6000602082019050818103600083015261453181613d8a565b9050919050565b6000602082019050818103600083015261455181613dad565b9050919050565b6000602082019050818103600083015261457181613dd0565b9050919050565b6000602082019050818103600083015261459181613df3565b9050919050565b600060208201905081810360008301526145b181613e16565b9050919050565b600060208201905081810360008301526145d181613e39565b9050919050565b600060208201905081810360008301526145f181613e7f565b9050919050565b6000602082019050818103600083015261461181613ea2565b9050919050565b6000602082019050818103600083015261463181613ec5565b9050919050565b6000602082019050818103600083015261465181613ee8565b9050919050565b6000602082019050818103600083015261467181613f0b565b9050919050565b6000602082019050818103600083015261469181613f2e565b9050919050565b600060208201905081810360008301526146b181613f51565b9050919050565b600060208201905081810360008301526146d181613f74565b9050919050565b600060208201905081810360008301526146f181613f97565b9050919050565b6000602082019050818103600083015261471181613fba565b9050919050565b6000602082019050818103600083015261473181613fdd565b9050919050565b6000602082019050818103600083015261475181614000565b9050919050565b6000602082019050818103600083015261477181614023565b9050919050565b6000602082019050818103600083015261479181614046565b9050919050565b600060208201905081810360008301526147b181614069565b9050919050565b600060208201905081810360008301526147d18161408c565b9050919050565b600060208201905081810360008301526147f1816140af565b9050919050565b60006020820190508181036000830152614811816140d2565b9050919050565b60006020820190508181036000830152614831816140f5565b9050919050565b6000602082019050818103600083015261485181614118565b9050919050565b600060208201905081810360008301526148718161413b565b9050919050565b600060208201905081810360008301526148918161415e565b9050919050565b600060208201905081810360008301526148b1816141a4565b9050919050565b600060208201905081810360008301526148d1816141c7565b9050919050565b600060208201905081810360008301526148f1816141ea565b9050919050565b600060208201905081810360008301526149118161420d565b9050919050565b6000602082019050818103600083015261493181614230565b9050919050565b6000602082019050818103600083015261495181614253565b9050919050565b6000602082019050818103600083015261497181614276565b9050919050565b6000602082019050818103600083015261499181614299565b9050919050565b60006020820190506149ad60008301846142da565b92915050565b600060a0820190506149c860008301886142f8565b6149d560208301876142cb565b6149e260408301866142e9565b6149ef60608301856142e9565b6149fc60808301846142bc565b9695505050505050565b6000614a10614a21565b9050614a1c8282614d40565b919050565b6000604051905090565b600067ffffffffffffffff821115614a4657614a45614e22565b5b614a4f82614e51565b9050602081019050919050565b60008190508160005260206000209050919050565b600081519050919050565b600081519050919050565b600082825260208201905092915050565b600081905092915050565b600082825260208201905092915050565b600081905092915050565b6000614aca82614c31565b9150614ad583614c31565b9250826fffffffffffffffffffffffffffffffff03821115614afa57614af9614dc4565b5b828201905092915050565b6000614b1082614c7b565b9150614b1b83614c7b565b9250827fffffffffffffffffffffffffffffffffffffffffffffffffffffffffffffffff03821115614b5057614b4f614dc4565b5b828201905092915050565b6000614b6682614c5b565b9150614b7183614c5b565b92508173ffffffffffffffffffffffffffffffffffffffff0483118215151615614b9e57614b9d614dc4565b5b828202905092915050565b6000614bb482614c95565b9150614bbf83614c95565b925082821015614bd257614bd1614dc4565b5b828203905092915050565b6000614be882614c5b565b9050919050565b60008115159050919050565b6000819050919050565b60007fffffffff0000000000000000000000000000000000000000000000000000000082169050919050565b60006fffffffffffffffffffffffffffffffff82169050919050565b600061ffff82169050919050565b600073ffffffffffffffffffffffffffffffffffffffff82169050919050565b6000819050919050565b600063ffffffff82169050919050565b600060ff82169050919050565b82818337600083830152505050565b60005b83811015614ccf578082015181840152602081019050614cb4565b83811115614cde576000848401525b50505050565b6000614cef82614c7b565b91506000821415614d0357614d02614dc4565b5b600182039050919050565b60006002820490506001821680614d2657607f821691505b60208210811415614d3a57614d39614df3565b5b50919050565b614d4982614e51565b810181811067ffffffffffffffff82111715614d6857614d67614e22565b5b80604052505050565b6000614d7c82614c7b565b91507fffffffffffffffffffffffffffffffffffffffffffffffffffffffffffffffff821415614daf57614dae614dc4565b5b600182019050919050565b6000819050919050565b7f4e487b7100000000000000000000000000000000000000000000000000000000600052601160045260246000fd5b7f4e487b7100000000000000000000000000000000000000000000000000000000600052602260045260246000fd5b7f4e487b7100000000000000000000000000000000000000000000000000000000600052604160045260246000fd5b6000601f19601f8301169050919050565b7f45434453413a20696e76616c6964207369676e61747572650000000000000000600082015250565b7f455243373231413a206f776e657220696e646578206f7574206f6620626f756e60008201527f6473000000000000000000000000000000000000000000000000000000000000602082015250565b7f53657420657863656564206d617820737570706c790000000000000000000000600082015250565b7f45434453413a20696e76616c6964207369676e6174757265206c656e67746800600082015250565b7f4f776e61626c653a206e6577206f776e657220697320746865207a65726f206160008201527f6464726573730000000000000000000000000000000000000000000000000000602082015250565b7f457863656564207374616765206d617820737570706c79000000000000000000600082015250565b7f455243373231413a206f776e657220717565727920666f72206e6f6e6578697360008201527f74656e7420746f6b656e00000000000000000000000000000000000000000000602082015250565b7f1901000000000000000000000000000000000000000000000000000000000000600082015250565b7f43616e6e6f742073657420746f2070726576696f757320737461676500000000600082015250565b7f455243373231413a20676c6f62616c20696e646578206f7574206f6620626f7560008201527f6e64730000000000000000000000000000000000000000000000000000000000602082015250565b7f455243373231413a207472616e7366657220746f20746865207a65726f20616460008201527f6472657373000000000000000000000000000000000000000000000000000000602082015250565b7f4e6f7420656e6f7567682066756e640000000000000000000000000000000000600082015250565b7f53616c6520616c726561647920656e6465640000000000000000000000000000600082015250565b7f5075626c6963206d696e74206e6f742073746172746564000000000000000000600082015250565b7f416464726573733a20756e61626c6520746f2073656e642076616c75652c207260008201527f6563697069656e74206d61792068617665207265766572746564000000000000602082015250565b7f45434453413a20696e76616c6964207369676e6174757265202773272076616c60008201527f7565000000000000000000000000000000000000000000000000000000000000602082015250565b7f416464726573733a20696e73756666696369656e742062616c616e6365000000600082015250565b7f53616c65206e6f74207374617274656400000000000000000000000000000000600082015250565b7f455243373231413a20617070726f76652063616c6c6572206973206e6f74206f60008201527f776e6572206e6f7220617070726f76656420666f7220616c6c00000000000000602082015250565b7f455243373231413a2062616c616e636520717565727920666f7220746865207a60008201527f65726f2061646472657373000000000000000000000000000000000000000000602082015250565b7f45434453413a20696e76616c6964207369676e6174757265202776272076616c60008201527f7565000000000000000000000000000000000000000000000000000000000000602082015250565b7f455243373231413a207472616e736665722066726f6d20696e636f727265637460008201527f206f776e65720000000000000000000000000000000000000000000000000000602082015250565b7f4f776e61626c653a2063616c6c6572206973206e6f7420746865206f776e6572600082015250565b7f45786365656420746f74616c20737570706c7900000000000000000000000000600082015250565b7f57726f6e67207374616765000000000000000000000000000000000000000000600082015250565b7f4552433732314d657461646174613a2055524920717565727920666f72206e6f60008201527f6e6578697374656e7420746f6b656e0000000000000000000000000000000000602082015250565b7f455243373231413a20617070726f766520746f2063616c6c6572000000000000600082015250565b7f455243373231413a207472616e736665722063616c6c6572206973206e6f742060008201527f6f776e6572206e6f7220617070726f7665640000000000000000000000000000602082015250565b7f4e6f7420656e6f7567682072656d61696e000000000000000000000000000000600082015250565b7f455243373231413a20617070726f76616c20746f2063757272656e74206f776e60008201527f6572000000000000000000000000000000000000000000000000000000000000602082015250565b50565b7f455243373231413a207175616e74697479206d7573742062652067726561746560008201527f7220300000000000000000000000000000000000000000000000000000000000602082015250565b7f455243373231413a207472616e7366657220746f206e6f6e204552433732315260008201527f6563656976657220696d706c656d656e74657200000000000000000000000000602082015250565b7f455243373231413a20746f6b656e20616c7265616479206d696e746564000000600082015250565b7f696e76616c6964206f7220756e617574686f72697a6564000000000000000000600082015250565b7f455243373231413a206d696e7420746f20746865207a65726f2061646472657360008201527f7300000000000000000000000000000000000000000000000000000000000000602082015250565b7f455243373231413a20756e61626c6520746f2067657420746f6b656e206f662060008201527f6f776e657220627920696e646578000000000000000000000000000000000000602082015250565b7f5075626c69632069732066696e616c2073746167650000000000000000000000600082015250565b7f455243373231413a20617070726f76656420717565727920666f72206e6f6e6560008201527f78697374656e7420746f6b656e00000000000000000000000000000000000000602082015250565b61575681614bdd565b811461576157600080fd5b50565b61576d81614bef565b811461577857600080fd5b50565b61578481614c05565b811461578f57600080fd5b50565b61579b81614c4d565b81146157a657600080fd5b50565b6157b281614c5b565b81146157bd57600080fd5b50565b6157c981614c7b565b81146157d457600080fd5b50565b6157e081614c85565b81146157eb57600080fd5b50565b6157f781614c95565b811461580257600080fd5b5056fe68747470733a2f2f617277656176652e6e65742f524b5036304671324e796c4971337057754346506e74346f6141487847446e5530544b787564656e5f6b41a26469706673582212204ecbbdc732fb5fcad7f26f1d5235c6322481948ceeb59a0c7e8e458bcb9c12dc64736f6c63430008040033",
  "linkReferences": {},
  "deployedLinkReferences": {}
}