{
  "_format": "hh-sol-artifact-1",
  "contractName": "TinaDAO",
  "sourceName": "contracts/TinaDAO.sol",
  "abi": [
    {
      "inputs": [
        {
          "internalType": "string",
          "name": "_name",
          "type": "string"
        },
        {
          "internalType": "string",
          "name": "_symbol",
          "type": "string"
        },
        {
          "components": [
            {
              "internalType": "uint8",
              "name": "stageId",
              "type": "uint8"
            },
            {
              "internalType": "uint16",
              "name": "maxSupply",
              "type": "uint16"
            },
            {
              "internalType": "uint32",
              "name": "startTime",
              "type": "uint32"
            },
            {
              "internalType": "uint32",
              "name": "endTime",
              "type": "uint32"
            },
            {
              "internalType": "uint160",
              "name": "mintPrice",
              "type": "uint160"
            }
          ],
          "internalType": "struct TinaDAO.StageInfo",
          "name": "_initStageInfo",
          "type": "tuple"
        },
        {
          "internalType": "string",
          "name": "_baseTokenURI",
          "type": "string"
        }
      ],
      "stateMutability": "nonpayable",
      "type": "constructor"
    },
    {
      "anonymous": false,
      "inputs": [
        {
          "indexed": true,
          "internalType": "address",
          "name": "owner",
          "type": "address"
        },
        {
          "indexed": true,
          "internalType": "address",
          "name": "approved",
          "type": "address"
        },
        {
          "indexed": true,
          "internalType": "uint256",
          "name": "tokenId",
          "type": "uint256"
        }
      ],
      "name": "Approval",
      "type": "event"
    },
    {
      "anonymous": false,
      "inputs": [
        {
          "indexed": true,
          "internalType": "address",
          "name": "owner",
          "type": "address"
        },
        {
          "indexed": true,
          "internalType": "address",
          "name": "operator",
          "type": "address"
        },
        {
          "indexed": false,
          "internalType": "bool",
          "name": "approved",
          "type": "bool"
        }
      ],
      "name": "ApprovalForAll",
      "type": "event"
    },
    {
      "anonymous": false,
      "inputs": [
        {
          "indexed": true,
          "internalType": "address",
          "name": "previousOwner",
          "type": "address"
        },
        {
          "indexed": true,
          "internalType": "address",
          "name": "newOwner",
          "type": "address"
        }
      ],
      "name": "OwnershipTransferred",
      "type": "event"
    },
    {
      "anonymous": false,
      "inputs": [
        {
          "indexed": true,
          "internalType": "address",
          "name": "from",
          "type": "address"
        },
        {
          "indexed": true,
          "internalType": "address",
          "name": "to",
          "type": "address"
        },
        {
          "indexed": true,
          "internalType": "uint256",
          "name": "tokenId",
          "type": "uint256"
        }
      ],
      "name": "Transfer",
      "type": "event"
    },
    {
      "inputs": [
        {
          "internalType": "address",
          "name": "to",
          "type": "address"
        },
        {
          "internalType": "uint256",
          "name": "tokenId",
          "type": "uint256"
        }
      ],
      "name": "approve",
      "outputs": [],
      "stateMutability": "nonpayable",
      "type": "function"
    },
    {
      "inputs": [
        {
          "internalType": "address",
          "name": "owner",
          "type": "address"
        }
      ],
      "name": "balanceOf",
      "outputs": [
        {
          "internalType": "uint256",
          "name": "",
          "type": "uint256"
        }
      ],
      "stateMutability": "view",
      "type": "function"
    },
    {
      "inputs": [],
      "name": "contractURI",
      "outputs": [
        {
          "internalType": "string",
          "name": "",
          "type": "string"
        }
      ],
      "stateMutability": "pure",
      "type": "function"
    },
    {
      "inputs": [
        {
          "internalType": "uint256",
          "name": "tokenId",
          "type": "uint256"
        }
      ],
      "name": "getApproved",
      "outputs": [
        {
          "internalType": "address",
          "name": "",
          "type": "address"
        }
      ],
      "stateMutability": "view",
      "type": "function"
    },
    {
      "inputs": [
        {
          "internalType": "address",
          "name": "owner",
          "type": "address"
        },
        {
          "internalType": "address",
          "name": "operator",
          "type": "address"
        }
      ],
      "name": "isApprovedForAll",
      "outputs": [
        {
          "internalType": "bool",
          "name": "",
          "type": "bool"
        }
      ],
      "stateMutability": "view",
      "type": "function"
    },
    {
      "inputs": [],
      "name": "name",
      "outputs": [
        {
          "internalType": "string",
          "name": "",
          "type": "string"
        }
      ],
      "stateMutability": "view",
      "type": "function"
    },
    {
      "inputs": [
        {
          "components": [
            {
              "internalType": "uint8",
              "name": "stageId",
              "type": "uint8"
            },
            {
              "internalType": "uint16",
              "name": "maxSupply",
              "type": "uint16"
            },
            {
              "internalType": "uint32",
              "name": "startTime",
              "type": "uint32"
            },
            {
              "internalType": "uint32",
              "name": "endTime",
              "type": "uint32"
            },
            {
              "internalType": "uint160",
              "name": "mintPrice",
              "type": "uint160"
            }
          ],
          "internalType": "struct TinaDAO.StageInfo",
          "name": "_stageInfo",
          "type": "tuple"
        }
      ],
      "name": "nextStage",
      "outputs": [],
      "stateMutability": "nonpayable",
      "type": "function"
    },
    {
      "inputs": [],
      "name": "owner",
      "outputs": [
        {
          "internalType": "address",
          "name": "",
          "type": "address"
        }
      ],
      "stateMutability": "view",
      "type": "function"
    },
    {
      "inputs": [
        {
          "internalType": "uint256",
          "name": "tokenId",
          "type": "uint256"
        }
      ],
      "name": "ownerOf",
      "outputs": [
        {
          "internalType": "address",
          "name": "",
          "type": "address"
        }
      ],
      "stateMutability": "view",
      "type": "function"
    },
    {
      "inputs": [
        {
          "internalType": "uint8",
          "name": "amount",
          "type": "uint8"
        }
      ],
      "name": "publicMint",
      "outputs": [],
      "stateMutability": "payable",
      "type": "function"
    },
    {
      "inputs": [],
      "name": "renounceOwnership",
      "outputs": [],
      "stateMutability": "nonpayable",
      "type": "function"
    },
    {
      "inputs": [
        {
          "internalType": "address",
          "name": "to",
          "type": "address"
        },
        {
          "internalType": "uint256",
          "name": "amount",
          "type": "uint256"
        }
      ],
      "name": "reserve",
      "outputs": [],
      "stateMutability": "nonpayable",
      "type": "function"
    },
    {
      "inputs": [
        {
          "internalType": "address",
          "name": "from",
          "type": "address"
        },
        {
          "internalType": "address",
          "name": "to",
          "type": "address"
        },
        {
          "internalType": "uint256",
          "name": "tokenId",
          "type": "uint256"
        }
      ],
      "name": "safeTransferFrom",
      "outputs": [],
      "stateMutability": "nonpayable",
      "type": "function"
    },
    {
      "inputs": [
        {
          "internalType": "address",
          "name": "from",
          "type": "address"
        },
        {
          "internalType": "address",
          "name": "to",
          "type": "address"
        },
        {
          "internalType": "uint256",
          "name": "tokenId",
          "type": "uint256"
        },
        {
          "internalType": "bytes",
          "name": "_data",
          "type": "bytes"
        }
      ],
      "name": "safeTransferFrom",
      "outputs": [],
      "stateMutability": "nonpayable",
      "type": "function"
    },
    {
      "inputs": [
        {
          "internalType": "address",
          "name": "operator",
          "type": "address"
        },
        {
          "internalType": "bool",
          "name": "approved",
          "type": "bool"
        }
      ],
      "name": "setApprovalForAll",
      "outputs": [],
      "stateMutability": "nonpayable",
      "type": "function"
    },
    {
      "inputs": [
        {
          "internalType": "string",
          "name": "baseURI",
          "type": "string"
        }
      ],
      "name": "setBaseURI",
      "outputs": [],
      "stateMutability": "nonpayable",
      "type": "function"
    },
    {
      "inputs": [],
      "name": "stageInfo",
      "outputs": [
        {
          "internalType": "uint8",
          "name": "stageId",
          "type": "uint8"
        },
        {
          "internalType": "uint16",
          "name": "maxSupply",
          "type": "uint16"
        },
        {
          "internalType": "uint32",
          "name": "startTime",
          "type": "uint32"
        },
        {
          "internalType": "uint32",
          "name": "endTime",
          "type": "uint32"
        },
        {
          "internalType": "uint160",
          "name": "mintPrice",
          "type": "uint160"
        }
      ],
      "stateMutability": "view",
      "type": "function"
    },
    {
      "inputs": [
        {
          "internalType": "bytes4",
          "name": "interfaceId",
          "type": "bytes4"
        }
      ],
      "name": "supportsInterface",
      "outputs": [
        {
          "internalType": "bool",
          "name": "",
          "type": "bool"
        }
      ],
      "stateMutability": "view",
      "type": "function"
    },
    {
      "inputs": [],
      "name": "symbol",
      "outputs": [
        {
          "internalType": "string",
          "name": "",
          "type": "string"
        }
      ],
      "stateMutability": "view",
      "type": "function"
    },
    {
      "inputs": [
        {
          "internalType": "uint256",
          "name": "index",
          "type": "uint256"
        }
      ],
      "name": "tokenByIndex",
      "outputs": [
        {
          "internalType": "uint256",
          "name": "",
          "type": "uint256"
        }
      ],
      "stateMutability": "view",
      "type": "function"
    },
    {
      "inputs": [
        {
          "internalType": "address",
          "name": "owner",
          "type": "address"
        },
        {
          "internalType": "uint256",
          "name": "index",
          "type": "uint256"
        }
      ],
      "name": "tokenOfOwnerByIndex",
      "outputs": [
        {
          "internalType": "uint256",
          "name": "",
          "type": "uint256"
        }
      ],
      "stateMutability": "view",
      "type": "function"
    },
    {
      "inputs": [
        {
          "internalType": "uint256",
          "name": "tokenId",
          "type": "uint256"
        }
      ],
      "name": "tokenURI",
      "outputs": [
        {
          "internalType": "string",
          "name": "",
          "type": "string"
        }
      ],
      "stateMutability": "view",
      "type": "function"
    },
    {
      "inputs": [],
      "name": "totalSupply",
      "outputs": [
        {
          "internalType": "uint256",
          "name": "",
          "type": "uint256"
        }
      ],
      "stateMutability": "view",
      "type": "function"
    },
    {
      "inputs": [
        {
          "internalType": "address",
          "name": "from",
          "type": "address"
        },
        {
          "internalType": "address",
          "name": "to",
          "type": "address"
        },
        {
          "internalType": "uint256",
          "name": "tokenId",
          "type": "uint256"
        }
      ],
      "name": "transferFrom",
      "outputs": [],
      "stateMutability": "nonpayable",
      "type": "function"
    },
    {
      "inputs": [
        {
          "internalType": "address",
          "name": "newOwner",
          "type": "address"
        }
      ],
      "name": "transferOwnership",
      "outputs": [],
      "stateMutability": "nonpayable",
      "type": "function"
    },
    {
      "inputs": [
        {
          "components": [
            {
              "internalType": "address",
              "name": "redeemer",
              "type": "address"
            },
            {
              "internalType": "uint8",
              "name": "stageId",
              "type": "uint8"
            },
            {
              "internalType": "uint8",
              "name": "amount",
              "type": "uint8"
            }
          ],
          "internalType": "struct TinaDAO.NFTVoucher",
          "name": "voucher",
          "type": "tuple"
        },
        {
          "internalType": "bytes",
          "name": "signature",
          "type": "bytes"
        },
        {
          "internalType": "uint8",
          "name": "amount",
          "type": "uint8"
        }
      ],
      "name": "whitelistMint",
      "outputs": [],
      "stateMutability": "payable",
      "type": "function"
    },
    {
      "inputs": [],
      "name": "withdraw",
      "outputs": [],
      "stateMutability": "nonpayable",
      "type": "function"
    }
  ],
  "bytecode": "0x61014060405260006001553480156200001757600080fd5b50604051620065f5380380620065f583398181016040528101906200003d91906200059c565b836040518060400160405280600181526020017f31000000000000000000000000000000000000000000000000000000000000008152508585620000966200008a6200028160201b60201c565b6200028960201b60201c565b8160029080519060200190620000ae92919062000389565b508060039080519060200190620000c792919062000389565b50505060008280519060200120905060008280519060200120905060007f8b73c3c69bb8fe3d512ecc4cf759cc79239f7b179b0ffacaa9a75d522b39400f90508260e081815250508161010081815250504660a08181525050620001338184846200034d60201b60201c565b608081815250503073ffffffffffffffffffffffffffffffffffffffff1660c08173ffffffffffffffffffffffffffffffffffffffff1660601b81525050806101208181525050505050505081600860008201518160000160006101000a81548160ff021916908360ff16021790555060208201518160000160016101000a81548161ffff021916908361ffff16021790555060408201518160000160036101000a81548163ffffffff021916908363ffffffff16021790555060608201518160000160076101000a81548163ffffffff021916908363ffffffff160217905550608082015181600001600b6101000a81548173ffffffffffffffffffffffffffffffffffffffff021916908373ffffffffffffffffffffffffffffffffffffffff16021790555090505080600990805190602001906200027692919062000389565b50505050506200092f565b600033905090565b60008060009054906101000a900473ffffffffffffffffffffffffffffffffffffffff169050816000806101000a81548173ffffffffffffffffffffffffffffffffffffffff021916908373ffffffffffffffffffffffffffffffffffffffff1602179055508173ffffffffffffffffffffffffffffffffffffffff168173ffffffffffffffffffffffffffffffffffffffff167f8be0079c531659141344cd1fd0a4f28419497f9722a3daafe3b4186f6b6457e060405160405180910390a35050565b600083838346306040516020016200036a95949392919062000687565b6040516020818303038152906040528051906020012090509392505050565b8280546200039790620007ec565b90600052602060002090601f016020900481019282620003bb576000855562000407565b82601f10620003d657805160ff191683800117855562000407565b8280016001018555821562000407579182015b8281111562000406578251825591602001919060010190620003e9565b5b5090506200041691906200041a565b5090565b5b80821115620004355760008160009055506001016200041b565b5090565b6000620004506200044a846200070d565b620006e4565b9050828152602081018484840111156200046957600080fd5b62000476848285620007b6565b509392505050565b600082601f8301126200049057600080fd5b8151620004a284826020860162000439565b91505092915050565b600060a08284031215620004be57600080fd5b620004ca60a0620006e4565b90506000620004dc8482850162000585565b6000830152506020620004f28482850162000557565b602083015250604062000508848285016200056e565b60408301525060606200051e848285016200056e565b6060830152506080620005348482850162000540565b60808301525092915050565b6000815190506200055181620008e1565b92915050565b6000815190506200056881620008c7565b92915050565b6000815190506200057f81620008fb565b92915050565b600081519050620005968162000915565b92915050565b6000806000806101008587031215620005b457600080fd5b600085015167ffffffffffffffff811115620005cf57600080fd5b620005dd878288016200047e565b945050602085015167ffffffffffffffff811115620005fb57600080fd5b62000609878288016200047e565b93505060406200061c87828801620004ab565b92505060e085015167ffffffffffffffff8111156200063a57600080fd5b62000648878288016200047e565b91505092959194509250565b6200065f8162000743565b82525050565b620006708162000757565b82525050565b62000681816200078f565b82525050565b600060a0820190506200069e600083018862000665565b620006ad602083018762000665565b620006bc604083018662000665565b620006cb606083018562000676565b620006da608083018462000654565b9695505050505050565b6000620006f062000703565b9050620006fe828262000822565b919050565b6000604051905090565b600067ffffffffffffffff8211156200072b576200072a62000887565b5b6200073682620008b6565b9050602081019050919050565b600062000750826200076f565b9050919050565b6000819050919050565b600061ffff82169050919050565b600073ffffffffffffffffffffffffffffffffffffffff82169050919050565b6000819050919050565b600063ffffffff82169050919050565b600060ff82169050919050565b60005b83811015620007d6578082015181840152602081019050620007b9565b83811115620007e6576000848401525b50505050565b600060028204905060018216806200080557607f821691505b602082108114156200081c576200081b62000858565b5b50919050565b6200082d82620008b6565b810181811067ffffffffffffffff821117156200084f576200084e62000887565b5b80604052505050565b7f4e487b7100000000000000000000000000000000000000000000000000000000600052602260045260246000fd5b7f4e487b7100000000000000000000000000000000000000000000000000000000600052604160045260246000fd5b6000601f19601f8301169050919050565b620008d28162000761565b8114620008de57600080fd5b50565b620008ec816200076f565b8114620008f857600080fd5b50565b620009068162000799565b81146200091257600080fd5b50565b6200092081620007a9565b81146200092c57600080fd5b50565b60805160a05160c05160601c60e0516101005161012051615c73620009826000396000613286015260006132c8015260006132a7015260006131dc015260006132320152600061325b0152615c736000f3fe60806040526004361061019c5760003560e01c80636352211e116100ec578063ad1191fa1161008a578063cc47a40b11610064578063cc47a40b146105ac578063e8a3d485146105d5578063e985e9c514610600578063f2fde38b1461063d5761019c565b8063ad1191fa1461051d578063b88d4fde14610546578063c87b56dd1461056f5761019c565b8063858e83b5116100c6578063858e83b5146104825780638da5cb5b1461049e57806395d89b41146104c9578063a22cb465146104f45761019c565b80636352211e146103f157806370a082311461042e578063715018a61461046b5761019c565b80632bf87116116101595780633ccfd60b116101335780633ccfd60b1461034b57806342842e0e146103625780634f6ccce71461038b57806355f804b3146103c85761019c565b80632bf87116146102c35780632f745c59146102f25780633425e8ba1461032f5761019c565b806301ffc9a7146101a157806306fdde03146101de578063081812fc14610209578063095ea7b31461024657806318160ddd1461026f57806323b872dd1461029a575b600080fd5b3480156101ad57600080fd5b506101c860048036038101906101c39190613d8c565b610666565b6040516101d59190614687565b60405180910390f35b3480156101ea57600080fd5b506101f36107b0565b604051610200919061477f565b60405180910390f35b34801561021557600080fd5b50610230600480360381019061022b9190613eb4565b610842565b60405161023d9190614620565b60405180910390f35b34801561025257600080fd5b5061026d60048036038101906102689190613d50565b6108c7565b005b34801561027b57600080fd5b506102846109e0565b6040516102919190614c61565b60405180910390f35b3480156102a657600080fd5b506102c160048036038101906102bc9190613c4a565b6109ea565b005b3480156102cf57600080fd5b506102d86109fa565b6040516102e9959493929190614c7c565b60405180910390f35b3480156102fe57600080fd5b5061031960048036038101906103149190613d50565b610a79565b6040516103269190614c61565b60405180910390f35b61034960048036038101906103449190613e1f565b610c77565b005b34801561035757600080fd5b5061036061102c565b005b34801561036e57600080fd5b5061038960048036038101906103849190613c4a565b6110bb565b005b34801561039757600080fd5b506103b260048036038101906103ad9190613eb4565b6110db565b6040516103bf9190614c61565b60405180910390f35b3480156103d457600080fd5b506103ef60048036038101906103ea9190613dde565b61112e565b005b3480156103fd57600080fd5b5061041860048036038101906104139190613eb4565b6111c4565b6040516104259190614620565b60405180910390f35b34801561043a57600080fd5b5061045560048036038101906104509190613be5565b6111da565b6040516104629190614c61565b60405180910390f35b34801561047757600080fd5b506104806112c3565b005b61049c60048036038101906104979190613edd565b61134b565b005b3480156104aa57600080fd5b506104b3611562565b6040516104c09190614620565b60405180910390f35b3480156104d557600080fd5b506104de61158b565b6040516104eb919061477f565b60405180910390f35b34801561050057600080fd5b5061051b60048036038101906105169190613d14565b61161d565b005b34801561052957600080fd5b50610544600480360381019061053f9190613e8b565b61179e565b005b34801561055257600080fd5b5061056d60048036038101906105689190613c99565b6119f9565b005b34801561057b57600080fd5b5061059660048036038101906105919190613eb4565b611a55565b6040516105a3919061477f565b60405180910390f35b3480156105b857600080fd5b506105d360048036038101906105ce9190613d50565b611afc565b005b3480156105e157600080fd5b506105ea611be0565b6040516105f7919061477f565b60405180910390f35b34801561060c57600080fd5b5061062760048036038101906106229190613c0e565b611c00565b6040516106349190614687565b60405180910390f35b34801561064957600080fd5b50610664600480360381019061065f9190613be5565b611c94565b005b60007f80ac58cd000000000000000000000000000000000000000000000000000000007bffffffffffffffffffffffffffffffffffffffffffffffffffffffff1916827bffffffffffffffffffffffffffffffffffffffffffffffffffffffff1916148061073157507f5b5e139f000000000000000000000000000000000000000000000000000000007bffffffffffffffffffffffffffffffffffffffffffffffffffffffff1916827bffffffffffffffffffffffffffffffffffffffffffffffffffffffff1916145b8061079957507f780e9d63000000000000000000000000000000000000000000000000000000007bffffffffffffffffffffffffffffffffffffffffffffffffffffffff1916827bffffffffffffffffffffffffffffffffffffffffffffffffffffffff1916145b806107a957506107a882611d8c565b5b9050919050565b6060600280546107bf90615058565b80601f01602080910402602001604051908101604052809291908181526020018280546107eb90615058565b80156108385780601f1061080d57610100808354040283529160200191610838565b820191906000526020600020905b81548152906001019060200180831161081b57829003601f168201915b5050505050905090565b600061084d82611df6565b61088c576040517f08c379a000000000000000000000000000000000000000000000000000000000815260040161088390614c41565b60405180910390fd5b6006600083815260200190815260200160002060009054906101000a900473ffffffffffffffffffffffffffffffffffffffff169050919050565b60006108d2826111c4565b90508073ffffffffffffffffffffffffffffffffffffffff168373ffffffffffffffffffffffffffffffffffffffff161415610943576040517f08c379a000000000000000000000000000000000000000000000000000000000815260040161093a90614b41565b60405180910390fd5b8073ffffffffffffffffffffffffffffffffffffffff16610962611e04565b73ffffffffffffffffffffffffffffffffffffffff16148061099157506109908161098b611e04565b611c00565b5b6109d0576040517f08c379a00000000000000000000000000000000000000000000000000000000081526004016109c7906149c1565b60405180910390fd5b6109db838383611e0c565b505050565b6000600154905090565b6109f5838383611ebe565b505050565b60088060000160009054906101000a900460ff16908060000160019054906101000a900461ffff16908060000160039054906101000a900463ffffffff16908060000160079054906101000a900463ffffffff169080600001600b9054906101000a900473ffffffffffffffffffffffffffffffffffffffff16905085565b6000610a84836111da565b8210610ac5576040517f08c379a0000000000000000000000000000000000000000000000000000000008152600401610abc906147c1565b60405180910390fd5b6000610acf6109e0565b905060008060005b83811015610c35576000600460008381526020019081526020016000206040518060400160405290816000820160009054906101000a900473ffffffffffffffffffffffffffffffffffffffff1673ffffffffffffffffffffffffffffffffffffffff1673ffffffffffffffffffffffffffffffffffffffff1681526020016000820160149054906101000a900467ffffffffffffffff1667ffffffffffffffff1667ffffffffffffffff16815250509050600073ffffffffffffffffffffffffffffffffffffffff16816000015173ffffffffffffffffffffffffffffffffffffffff1614610bc957806000015192505b8773ffffffffffffffffffffffffffffffffffffffff168373ffffffffffffffffffffffffffffffffffffffff161415610c215786841415610c12578195505050505050610c71565b8380610c1d906150bb565b9450505b508080610c2d906150bb565b915050610ad7565b506040517f08c379a0000000000000000000000000000000000000000000000000000000008152600401610c6890614be1565b60405180910390fd5b92915050565b6000600a6000610c85611e04565b73ffffffffffffffffffffffffffffffffffffffff1673ffffffffffffffffffffffffffffffffffffffff1681526020019081526020016000209050600860000160009054906101000a900460ff1660ff168160000160009054906101000a900460ff1660ff161015610dc857610cfd858585612465565b600860000160009054906101000a900460ff1660ff16856020016020810190610d269190613edd565b60ff1614610d69576040517f08c379a0000000000000000000000000000000000000000000000000000000008152600401610d6090614a81565b60405180910390fd5b846020016020810190610d7c9190613edd565b8160000160006101000a81548160ff021916908360ff160217905550846040016020810190610dab9190613edd565b8160000160016101000a81548160ff021916908360ff1602179055505b600860000160039054906101000a900463ffffffff1663ffffffff16421015610e26576040517f08c379a0000000000000000000000000000000000000000000000000000000008152600401610e1d906149a1565b60405180910390fd5b600860000160079054906101000a900463ffffffff1663ffffffff16421115610e84576040517f08c379a0000000000000000000000000000000000000000000000000000000008152600401610e7b90614901565b60405180910390fd5b8060000160019054906101000a900460ff1660ff168260ff161115610ede576040517f08c379a0000000000000000000000000000000000000000000000000000000008152600401610ed590614b01565b60405180910390fd5b600860000160019054906101000a900461ffff1661ffff168260ff16610f026109e0565b610f0c9190614dea565b1115610f4d576040517f08c379a0000000000000000000000000000000000000000000000000000000008152600401610f4490614841565b60405180910390fd5b8160ff166008600001600b9054906101000a900473ffffffffffffffffffffffffffffffffffffffff16610f819190614e71565b73ffffffffffffffffffffffffffffffffffffffff16341015610fd9576040517f08c379a0000000000000000000000000000000000000000000000000000000008152600401610fd0906148e1565b60405180910390fd5b610fed610fe4611e04565b8360ff166125b1565b818160000160018282829054906101000a900460ff1661100d9190614ef3565b92506101000a81548160ff021916908360ff1602179055505050505050565b611034611e04565b73ffffffffffffffffffffffffffffffffffffffff16611052611562565b73ffffffffffffffffffffffffffffffffffffffff16146110a8576040517f08c379a000000000000000000000000000000000000000000000000000000000815260040161109f90614a41565b60405180910390fd5b6110b96110b3611562565b476125cf565b565b6110d6838383604051806020016040528060008152506119f9565b505050565b60006110e56109e0565b8210611126576040517f08c379a000000000000000000000000000000000000000000000000000000000815260040161111d906148a1565b60405180910390fd5b819050919050565b611136611e04565b73ffffffffffffffffffffffffffffffffffffffff16611154611562565b73ffffffffffffffffffffffffffffffffffffffff16146111aa576040517f08c379a00000000000000000000000000000000000000000000000000000000081526004016111a190614a41565b60405180910390fd5b80600990805190602001906111c092919061388e565b5050565b60006111cf826126c3565b600001519050919050565b60008073ffffffffffffffffffffffffffffffffffffffff168273ffffffffffffffffffffffffffffffffffffffff16141561124b576040517f08c379a0000000000000000000000000000000000000000000000000000000008152600401611242906149e1565b60405180910390fd5b600560008373ffffffffffffffffffffffffffffffffffffffff1673ffffffffffffffffffffffffffffffffffffffff16815260200190815260200160002060000160009054906101000a90046fffffffffffffffffffffffffffffffff166fffffffffffffffffffffffffffffffff169050919050565b6112cb611e04565b73ffffffffffffffffffffffffffffffffffffffff166112e9611562565b73ffffffffffffffffffffffffffffffffffffffff161461133f576040517f08c379a000000000000000000000000000000000000000000000000000000000815260040161133690614a41565b60405180910390fd5b611349600061281e565b565b600260ff16600860000160009054906101000a900460ff1660ff16146113a6576040517f08c379a000000000000000000000000000000000000000000000000000000000815260040161139d90614921565b60405180910390fd5b600860000160039054906101000a900463ffffffff1663ffffffff16421015611404576040517f08c379a00000000000000000000000000000000000000000000000000000000081526004016113fb906149a1565b60405180910390fd5b600860000160079054906101000a900463ffffffff1663ffffffff16421115611462576040517f08c379a000000000000000000000000000000000000000000000000000000000815260040161145990614901565b60405180910390fd5b600561ffff168160ff166114746109e0565b61147e9190614dea565b11156114bf576040517f08c379a00000000000000000000000000000000000000000000000000000000081526004016114b690614a61565b60405180910390fd5b8060ff166008600001600b9054906101000a900473ffffffffffffffffffffffffffffffffffffffff166114f39190614e71565b73ffffffffffffffffffffffffffffffffffffffff1634101561154b576040517f08c379a000000000000000000000000000000000000000000000000000000000815260040161154290614c21565b60405180910390fd5b61155f611556611e04565b8260ff166125b1565b50565b60008060009054906101000a900473ffffffffffffffffffffffffffffffffffffffff16905090565b60606003805461159a90615058565b80601f01602080910402602001604051908101604052809291908181526020018280546115c690615058565b80156116135780601f106115e857610100808354040283529160200191611613565b820191906000526020600020905b8154815290600101906020018083116115f657829003601f168201915b5050505050905090565b611625611e04565b73ffffffffffffffffffffffffffffffffffffffff168273ffffffffffffffffffffffffffffffffffffffff161415611693576040517f08c379a000000000000000000000000000000000000000000000000000000000815260040161168a90614ac1565b60405180910390fd5b80600760006116a0611e04565b73ffffffffffffffffffffffffffffffffffffffff1673ffffffffffffffffffffffffffffffffffffffff16815260200190815260200160002060008473ffffffffffffffffffffffffffffffffffffffff1673ffffffffffffffffffffffffffffffffffffffff16815260200190815260200160002060006101000a81548160ff0219169083151502179055508173ffffffffffffffffffffffffffffffffffffffff1661174d611e04565b73ffffffffffffffffffffffffffffffffffffffff167f17307eab39ab6107e8899845ad3d59bd9653f200f220920489ca2b5937696c31836040516117929190614687565b60405180910390a35050565b6117a6611e04565b73ffffffffffffffffffffffffffffffffffffffff166117c4611562565b73ffffffffffffffffffffffffffffffffffffffff161461181a576040517f08c379a000000000000000000000000000000000000000000000000000000000815260040161181190614a41565b60405180910390fd5b600860000160009054906101000a900460ff1660ff16816000015160ff161015611879576040517f08c379a000000000000000000000000000000000000000000000000000000000815260040161187090614881565b60405180910390fd5b600561ffff16816020015161ffff1611156118c9576040517f08c379a00000000000000000000000000000000000000000000000000000000081526004016118c0906147e1565b60405180910390fd5b600260ff16816000015160ff161115611917576040517f08c379a000000000000000000000000000000000000000000000000000000000815260040161190e90614c01565b60405180910390fd5b80600860008201518160000160006101000a81548160ff021916908360ff16021790555060208201518160000160016101000a81548161ffff021916908361ffff16021790555060408201518160000160036101000a81548163ffffffff021916908363ffffffff16021790555060608201518160000160076101000a81548163ffffffff021916908363ffffffff160217905550608082015181600001600b6101000a81548173ffffffffffffffffffffffffffffffffffffffff021916908373ffffffffffffffffffffffffffffffffffffffff16021790555090505050565b611a04848484611ebe565b611a10848484846128e2565b611a4f576040517f08c379a0000000000000000000000000000000000000000000000000000000008152600401611a4690614b81565b60405180910390fd5b50505050565b6060611a6082611df6565b611a9f576040517f08c379a0000000000000000000000000000000000000000000000000000000008152600401611a9690614aa1565b60405180910390fd5b6000611aa9612a79565b90506000815111611ac95760405180602001604052806000815250611af4565b80611ad384612b0b565b604051602001611ae49291906145b0565b6040516020818303038152906040525b915050919050565b611b04611e04565b73ffffffffffffffffffffffffffffffffffffffff16611b22611562565b73ffffffffffffffffffffffffffffffffffffffff1614611b78576040517f08c379a0000000000000000000000000000000000000000000000000000000008152600401611b6f90614a41565b60405180910390fd5b600561ffff1681611b876109e0565b611b919190614dea565b1115611bd2576040517f08c379a0000000000000000000000000000000000000000000000000000000008152600401611bc990614a61565b60405180910390fd5b611bdc82826125b1565b5050565b60606040518060600160405280603f8152602001615bff603f9139905090565b6000600760008473ffffffffffffffffffffffffffffffffffffffff1673ffffffffffffffffffffffffffffffffffffffff16815260200190815260200160002060008373ffffffffffffffffffffffffffffffffffffffff1673ffffffffffffffffffffffffffffffffffffffff16815260200190815260200160002060009054906101000a900460ff16905092915050565b611c9c611e04565b73ffffffffffffffffffffffffffffffffffffffff16611cba611562565b73ffffffffffffffffffffffffffffffffffffffff1614611d10576040517f08c379a0000000000000000000000000000000000000000000000000000000008152600401611d0790614a41565b60405180910390fd5b600073ffffffffffffffffffffffffffffffffffffffff168173ffffffffffffffffffffffffffffffffffffffff161415611d80576040517f08c379a0000000000000000000000000000000000000000000000000000000008152600401611d7790614821565b60405180910390fd5b611d898161281e565b50565b60007f01ffc9a7000000000000000000000000000000000000000000000000000000007bffffffffffffffffffffffffffffffffffffffffffffffffffffffff1916827bffffffffffffffffffffffffffffffffffffffffffffffffffffffff1916149050919050565b600060015482109050919050565b600033905090565b826006600084815260200190815260200160002060006101000a81548173ffffffffffffffffffffffffffffffffffffffff021916908373ffffffffffffffffffffffffffffffffffffffff160217905550818373ffffffffffffffffffffffffffffffffffffffff168273ffffffffffffffffffffffffffffffffffffffff167f8c5be1e5ebec7d5bd14f71427d1e84f3dd0314c0f7b2291e5b200ac8c7c3b92560405160405180910390a4505050565b6000611ec9826126c3565b90506000816000015173ffffffffffffffffffffffffffffffffffffffff16611ef0611e04565b73ffffffffffffffffffffffffffffffffffffffff161480611f4c5750611f15611e04565b73ffffffffffffffffffffffffffffffffffffffff16611f3484610842565b73ffffffffffffffffffffffffffffffffffffffff16145b80611f685750611f678260000151611f62611e04565b611c00565b5b905080611faa576040517f08c379a0000000000000000000000000000000000000000000000000000000008152600401611fa190614ae1565b60405180910390fd5b8473ffffffffffffffffffffffffffffffffffffffff16826000015173ffffffffffffffffffffffffffffffffffffffff161461201c576040517f08c379a000000000000000000000000000000000000000000000000000000000815260040161201390614a21565b60405180910390fd5b600073ffffffffffffffffffffffffffffffffffffffff168473ffffffffffffffffffffffffffffffffffffffff16141561208c576040517f08c379a0000000000000000000000000000000000000000000000000000000008152600401612083906148c1565b60405180910390fd5b6120998585856001612cb8565b6120a96000848460000151611e0c565b6001600560008773ffffffffffffffffffffffffffffffffffffffff1673ffffffffffffffffffffffffffffffffffffffff16815260200190815260200160002060000160008282829054906101000a90046fffffffffffffffffffffffffffffffff160392506101000a8154816fffffffffffffffffffffffffffffffff02191690836fffffffffffffffffffffffffffffffff1602179055506001600560008673ffffffffffffffffffffffffffffffffffffffff1673ffffffffffffffffffffffffffffffffffffffff16815260200190815260200160002060000160008282829054906101000a90046fffffffffffffffffffffffffffffffff160192506101000a8154816fffffffffffffffffffffffffffffffff02191690836fffffffffffffffffffffffffffffffff16021790555060405180604001604052808573ffffffffffffffffffffffffffffffffffffffff1681526020014267ffffffffffffffff168152506004600085815260200190815260200160002060008201518160000160006101000a81548173ffffffffffffffffffffffffffffffffffffffff021916908373ffffffffffffffffffffffffffffffffffffffff16021790555060208201518160000160146101000a81548167ffffffffffffffff021916908367ffffffffffffffff16021790555090505060006001846122af9190614dea565b9050600073ffffffffffffffffffffffffffffffffffffffff166004600083815260200190815260200160002060000160009054906101000a900473ffffffffffffffffffffffffffffffffffffffff1673ffffffffffffffffffffffffffffffffffffffff1614156123f55761232581611df6565b156123f4576040518060400160405280846000015173ffffffffffffffffffffffffffffffffffffffff168152602001846020015167ffffffffffffffff168152506004600083815260200190815260200160002060008201518160000160006101000a81548173ffffffffffffffffffffffffffffffffffffffff021916908373ffffffffffffffffffffffffffffffffffffffff16021790555060208201518160000160146101000a81548167ffffffffffffffff021916908367ffffffffffffffff1602179055509050505b5b838573ffffffffffffffffffffffffffffffffffffffff168773ffffffffffffffffffffffffffffffffffffffff167fddf252ad1be2c89b69c2b068fc378daa952ba7f163c4a11628f55a4df523b3ef60405160405180910390a461245d8686866001612cbe565b505050505050565b60006124e77f56fc50411139d37d603be8c646a514a74d727c7be5c2dc1f9c0606059fa1c7c9612493611e04565b8660200160208101906124a69190613edd565b8760400160208101906124b99190613edd565b6040516020016124cc94939291906146a2565b60405160208183030381529060405280519060200120612cc4565b90506125378184848080601f016020809104026020016040519081016040528093929190818152602001838380828437600081840152601f19601f82011690508083019250505050505050612cde565b73ffffffffffffffffffffffffffffffffffffffff16612555611562565b73ffffffffffffffffffffffffffffffffffffffff16146125ab576040517f08c379a00000000000000000000000000000000000000000000000000000000081526004016125a290614b21565b60405180910390fd5b50505050565b6125cb828260405180602001604052806000815250612d05565b5050565b80471015612612576040517f08c379a000000000000000000000000000000000000000000000000000000000815260040161260990614981565b60405180910390fd5b60008273ffffffffffffffffffffffffffffffffffffffff16826040516126389061460b565b60006040518083038185875af1925050503d8060008114612675576040519150601f19603f3d011682016040523d82523d6000602084013e61267a565b606091505b50509050806126be576040517f08c379a00000000000000000000000000000000000000000000000000000000081526004016126b590614941565b60405180910390fd5b505050565b6126cb613914565b6126d482611df6565b612713576040517f08c379a000000000000000000000000000000000000000000000000000000000815260040161270a90614861565b60405180910390fd5b60008290505b6000600460008381526020019081526020016000206040518060400160405290816000820160009054906101000a900473ffffffffffffffffffffffffffffffffffffffff1673ffffffffffffffffffffffffffffffffffffffff1673ffffffffffffffffffffffffffffffffffffffff1681526020016000820160149054906101000a900467ffffffffffffffff1667ffffffffffffffff1667ffffffffffffffff16815250509050600073ffffffffffffffffffffffffffffffffffffffff16816000015173ffffffffffffffffffffffffffffffffffffffff1614612805578092505050612819565b5080806128119061502e565b915050612719565b919050565b60008060009054906101000a900473ffffffffffffffffffffffffffffffffffffffff169050816000806101000a81548173ffffffffffffffffffffffffffffffffffffffff021916908373ffffffffffffffffffffffffffffffffffffffff1602179055508173ffffffffffffffffffffffffffffffffffffffff168173ffffffffffffffffffffffffffffffffffffffff167f8be0079c531659141344cd1fd0a4f28419497f9722a3daafe3b4186f6b6457e060405160405180910390a35050565b60006129038473ffffffffffffffffffffffffffffffffffffffff166131c5565b15612a6c578373ffffffffffffffffffffffffffffffffffffffff1663150b7a0261292c611e04565b8786866040518563ffffffff1660e01b815260040161294e949392919061463b565b602060405180830381600087803b15801561296857600080fd5b505af192505050801561299957506040513d601f19601f820116820180604052508101906129969190613db5565b60015b612a1c573d80600081146129c9576040519150601f19603f3d011682016040523d82523d6000602084013e6129ce565b606091505b50600081511415612a14576040517f08c379a0000000000000000000000000000000000000000000000000000000008152600401612a0b90614b81565b60405180910390fd5b805181602001fd5b63150b7a0260e01b7bffffffffffffffffffffffffffffffffffffffffffffffffffffffff1916817bffffffffffffffffffffffffffffffffffffffffffffffffffffffff191614915050612a71565b600190505b949350505050565b606060098054612a8890615058565b80601f0160208091040260200160405190810160405280929190818152602001828054612ab490615058565b8015612b015780601f10612ad657610100808354040283529160200191612b01565b820191906000526020600020905b815481529060010190602001808311612ae457829003601f168201915b5050505050905090565b60606000821415612b53576040518060400160405280600181526020017f30000000000000000000000000000000000000000000000000000000000000008152509050612cb3565b600082905060005b60008214612b85578080612b6e906150bb565b915050600a82612b7e9190614e40565b9150612b5b565b60008167ffffffffffffffff811115612bc7577f4e487b7100000000000000000000000000000000000000000000000000000000600052604160045260246000fd5b6040519080825280601f01601f191660200182016040528015612bf95781602001600182028036833780820191505090505b5090505b60008514612cac57600182612c129190614ebf565b9150600a85612c21919061510e565b6030612c2d9190614dea565b60f81b818381518110612c69577f4e487b7100000000000000000000000000000000000000000000000000000000600052603260045260246000fd5b60200101907effffffffffffffffffffffffffffffffffffffffffffffffffffffffffffff1916908160001a905350600a85612ca59190614e40565b9450612bfd565b8093505050505b919050565b50505050565b50505050565b6000612cd7612cd16131d8565b836132f2565b9050919050565b6000806000612ced8585613325565b91509150612cfa816133a8565b819250505092915050565b60006001549050600073ffffffffffffffffffffffffffffffffffffffff168473ffffffffffffffffffffffffffffffffffffffff161415612d7c576040517f08c379a0000000000000000000000000000000000000000000000000000000008152600401612d7390614bc1565b60405180910390fd5b612d8581611df6565b15612dc5576040517f08c379a0000000000000000000000000000000000000000000000000000000008152600401612dbc90614ba1565b60405180910390fd5b60008311612e08576040517f08c379a0000000000000000000000000000000000000000000000000000000008152600401612dff90614b61565b60405180910390fd5b612e156000858386612cb8565b6000600560008673ffffffffffffffffffffffffffffffffffffffff1673ffffffffffffffffffffffffffffffffffffffff1681526020019081526020016000206040518060400160405290816000820160009054906101000a90046fffffffffffffffffffffffffffffffff166fffffffffffffffffffffffffffffffff166fffffffffffffffffffffffffffffffff1681526020016000820160109054906101000a90046fffffffffffffffffffffffffffffffff166fffffffffffffffffffffffffffffffff166fffffffffffffffffffffffffffffffff168152505090506040518060400160405280858360000151612f129190614da4565b6fffffffffffffffffffffffffffffffff168152602001858360200151612f399190614da4565b6fffffffffffffffffffffffffffffffff16815250600560008773ffffffffffffffffffffffffffffffffffffffff1673ffffffffffffffffffffffffffffffffffffffff16815260200190815260200160002060008201518160000160006101000a8154816fffffffffffffffffffffffffffffffff02191690836fffffffffffffffffffffffffffffffff16021790555060208201518160000160106101000a8154816fffffffffffffffffffffffffffffffff02191690836fffffffffffffffffffffffffffffffff16021790555090505060405180604001604052808673ffffffffffffffffffffffffffffffffffffffff1681526020014267ffffffffffffffff168152506004600084815260200190815260200160002060008201518160000160006101000a81548173ffffffffffffffffffffffffffffffffffffffff021916908373ffffffffffffffffffffffffffffffffffffffff16021790555060208201518160000160146101000a81548167ffffffffffffffff021916908367ffffffffffffffff160217905550905050600082905060005b858110156131a857818773ffffffffffffffffffffffffffffffffffffffff16600073ffffffffffffffffffffffffffffffffffffffff167fddf252ad1be2c89b69c2b068fc378daa952ba7f163c4a11628f55a4df523b3ef60405160405180910390a461314860008884886128e2565b613187576040517f08c379a000000000000000000000000000000000000000000000000000000000815260040161317e90614b81565b60405180910390fd5b8180613192906150bb565b92505080806131a0906150bb565b9150506130d7565b50806001819055506131bd6000878588612cbe565b505050505050565b600080823b905060008111915050919050565b60007f000000000000000000000000000000000000000000000000000000000000000073ffffffffffffffffffffffffffffffffffffffff163073ffffffffffffffffffffffffffffffffffffffff1614801561325457507f000000000000000000000000000000000000000000000000000000000000000046145b15613281577f000000000000000000000000000000000000000000000000000000000000000090506132ef565b6132ec7f00000000000000000000000000000000000000000000000000000000000000007f00000000000000000000000000000000000000000000000000000000000000007f00000000000000000000000000000000000000000000000000000000000000006136f9565b90505b90565b600082826040516020016133079291906145d4565b60405160208183030381529060405280519060200120905092915050565b6000806041835114156133675760008060006020860151925060408601519150606086015160001a905061335b87828585613733565b945094505050506133a1565b60408351141561339857600080602085015191506040850151905061338d868383613840565b9350935050506133a1565b60006002915091505b9250929050565b600060048111156133e2577f4e487b7100000000000000000000000000000000000000000000000000000000600052602160045260246000fd5b81600481111561341b577f4e487b7100000000000000000000000000000000000000000000000000000000600052602160045260246000fd5b1415613426576136f6565b60016004811115613460577f4e487b7100000000000000000000000000000000000000000000000000000000600052602160045260246000fd5b816004811115613499577f4e487b7100000000000000000000000000000000000000000000000000000000600052602160045260246000fd5b14156134da576040517f08c379a00000000000000000000000000000000000000000000000000000000081526004016134d1906147a1565b60405180910390fd5b60026004811115613514577f4e487b7100000000000000000000000000000000000000000000000000000000600052602160045260246000fd5b81600481111561354d577f4e487b7100000000000000000000000000000000000000000000000000000000600052602160045260246000fd5b141561358e576040517f08c379a000000000000000000000000000000000000000000000000000000000815260040161358590614801565b60405180910390fd5b600360048111156135c8577f4e487b7100000000000000000000000000000000000000000000000000000000600052602160045260246000fd5b816004811115613601577f4e487b7100000000000000000000000000000000000000000000000000000000600052602160045260246000fd5b1415613642576040517f08c379a000000000000000000000000000000000000000000000000000000000815260040161363990614961565b60405180910390fd5b60048081111561367b577f4e487b7100000000000000000000000000000000000000000000000000000000600052602160045260246000fd5b8160048111156136b4577f4e487b7100000000000000000000000000000000000000000000000000000000600052602160045260246000fd5b14156136f5576040517f08c379a00000000000000000000000000000000000000000000000000000000081526004016136ec90614a01565b60405180910390fd5b5b50565b600083838346306040516020016137149594939291906146e7565b6040516020818303038152906040528051906020012090509392505050565b6000807f7fffffffffffffffffffffffffffffff5d576e7357a4501ddfe92f46681b20a08360001c111561376e576000600391509150613837565b601b8560ff16141580156137865750601c8560ff1614155b15613798576000600491509150613837565b6000600187878787604051600081526020016040526040516137bd949392919061473a565b6020604051602081039080840390855afa1580156137df573d6000803e3d6000fd5b505050602060405103519050600073ffffffffffffffffffffffffffffffffffffffff168173ffffffffffffffffffffffffffffffffffffffff16141561382e57600060019250925050613837565b80600092509250505b94509492505050565b6000806000807f7fffffffffffffffffffffffffffffffffffffffffffffffffffffffffffffff85169150601b8560ff1c01905061388087828885613733565b935093505050935093915050565b82805461389a90615058565b90600052602060002090601f0160209004810192826138bc5760008555613903565b82601f106138d557805160ff1916838001178555613903565b82800160010185558215613903579182015b828111156139025782518255916020019190600101906138e7565b5b509050613910919061394e565b5090565b6040518060400160405280600073ffffffffffffffffffffffffffffffffffffffff168152602001600067ffffffffffffffff1681525090565b5b8082111561396757600081600090555060010161394f565b5090565b600061397e61397984614cf4565b614ccf565b90508281526020810184848401111561399657600080fd5b6139a1848285614fec565b509392505050565b60006139bc6139b784614d25565b614ccf565b9050828152602081018484840111156139d457600080fd5b6139df848285614fec565b509392505050565b6000813590506139f681615b46565b92915050565b600081359050613a0b81615b5d565b92915050565b600081359050613a2081615b74565b92915050565b600081519050613a3581615b74565b92915050565b60008083601f840112613a4d57600080fd5b8235905067ffffffffffffffff811115613a6657600080fd5b602083019150836001820283011115613a7e57600080fd5b9250929050565b600082601f830112613a9657600080fd5b8135613aa684826020860161396b565b91505092915050565b600082601f830112613ac057600080fd5b8135613ad08482602086016139a9565b91505092915050565b600060608284031215613aeb57600080fd5b81905092915050565b600060a08284031215613b0657600080fd5b613b1060a0614ccf565b90506000613b2084828501613bd0565b6000830152506020613b3484828501613b7c565b6020830152506040613b4884828501613bbb565b6040830152506060613b5c84828501613bbb565b6060830152506080613b7084828501613b91565b60808301525092915050565b600081359050613b8b81615b8b565b92915050565b600081359050613ba081615ba2565b92915050565b600081359050613bb581615bb9565b92915050565b600081359050613bca81615bd0565b92915050565b600081359050613bdf81615be7565b92915050565b600060208284031215613bf757600080fd5b6000613c05848285016139e7565b91505092915050565b60008060408385031215613c2157600080fd5b6000613c2f858286016139e7565b9250506020613c40858286016139e7565b9150509250929050565b600080600060608486031215613c5f57600080fd5b6000613c6d868287016139e7565b9350506020613c7e868287016139e7565b9250506040613c8f86828701613ba6565b9150509250925092565b60008060008060808587031215613caf57600080fd5b6000613cbd878288016139e7565b9450506020613cce878288016139e7565b9350506040613cdf87828801613ba6565b925050606085013567ffffffffffffffff811115613cfc57600080fd5b613d0887828801613a85565b91505092959194509250565b60008060408385031215613d2757600080fd5b6000613d35858286016139e7565b9250506020613d46858286016139fc565b9150509250929050565b60008060408385031215613d6357600080fd5b6000613d71858286016139e7565b9250506020613d8285828601613ba6565b9150509250929050565b600060208284031215613d9e57600080fd5b6000613dac84828501613a11565b91505092915050565b600060208284031215613dc757600080fd5b6000613dd584828501613a26565b91505092915050565b600060208284031215613df057600080fd5b600082013567ffffffffffffffff811115613e0a57600080fd5b613e1684828501613aaf565b91505092915050565b60008060008060a08587031215613e3557600080fd5b6000613e4387828801613ad9565b945050606085013567ffffffffffffffff811115613e6057600080fd5b613e6c87828801613a3b565b93509350506080613e7f87828801613bd0565b91505092959194509250565b600060a08284031215613e9d57600080fd5b6000613eab84828501613af4565b91505092915050565b600060208284031215613ec657600080fd5b6000613ed484828501613ba6565b91505092915050565b600060208284031215613eef57600080fd5b6000613efd84828501613bd0565b91505092915050565b613f0f81614f27565b82525050565b613f1e81614f39565b82525050565b613f2d81614f45565b82525050565b613f44613f3f82614f45565b615104565b82525050565b6000613f5582614d56565b613f5f8185614d6c565b9350613f6f818560208601614ffb565b613f78816151fb565b840191505092915050565b6000613f8e82614d61565b613f988185614d88565b9350613fa8818560208601614ffb565b613fb1816151fb565b840191505092915050565b6000613fc782614d61565b613fd18185614d99565b9350613fe1818560208601614ffb565b80840191505092915050565b6000613ffa601883614d88565b91506140058261520c565b602082019050919050565b600061401d602283614d88565b915061402882615235565b604082019050919050565b6000614040601583614d88565b915061404b82615284565b602082019050919050565b6000614063601f83614d88565b915061406e826152ad565b602082019050919050565b6000614086602683614d88565b9150614091826152d6565b604082019050919050565b60006140a9601783614d88565b91506140b482615325565b602082019050919050565b60006140cc602a83614d88565b91506140d78261534e565b604082019050919050565b60006140ef600283614d99565b91506140fa8261539d565b600282019050919050565b6000614112601c83614d88565b915061411d826153c6565b602082019050919050565b6000614135602383614d88565b9150614140826153ef565b604082019050919050565b6000614158602583614d88565b91506141638261543e565b604082019050919050565b600061417b600f83614d88565b91506141868261548d565b602082019050919050565b600061419e601283614d88565b91506141a9826154b6565b602082019050919050565b60006141c1601783614d88565b91506141cc826154df565b602082019050919050565b60006141e4603a83614d88565b91506141ef82615508565b604082019050919050565b6000614207602283614d88565b915061421282615557565b604082019050919050565b600061422a601d83614d88565b9150614235826155a6565b602082019050919050565b600061424d601083614d88565b9150614258826155cf565b602082019050919050565b6000614270603983614d88565b915061427b826155f8565b604082019050919050565b6000614293602b83614d88565b915061429e82615647565b604082019050919050565b60006142b6602283614d88565b91506142c182615696565b604082019050919050565b60006142d9602683614d88565b91506142e4826156e5565b604082019050919050565b60006142fc602083614d88565b915061430782615734565b602082019050919050565b600061431f601383614d88565b915061432a8261575d565b602082019050919050565b6000614342600b83614d88565b915061434d82615786565b602082019050919050565b6000614365602f83614d88565b9150614370826157af565b604082019050919050565b6000614388601a83614d88565b9150614393826157fe565b602082019050919050565b60006143ab603283614d88565b91506143b682615827565b604082019050919050565b60006143ce601183614d88565b91506143d982615876565b602082019050919050565b60006143f1602183614d88565b91506143fc8261589f565b604082019050919050565b6000614414602283614d88565b915061441f826158ee565b604082019050919050565b6000614437600083614d7d565b91506144428261593d565b600082019050919050565b600061445a602383614d88565b915061446582615940565b604082019050919050565b600061447d603383614d88565b91506144888261598f565b604082019050919050565b60006144a0601d83614d88565b91506144ab826159de565b602082019050919050565b60006144c3602183614d88565b91506144ce82615a07565b604082019050919050565b60006144e6602e83614d88565b91506144f182615a56565b604082019050919050565b6000614509601583614d88565b915061451482615aa5565b602082019050919050565b600061452c601b83614d88565b915061453782615ace565b602082019050919050565b600061454f602d83614d88565b915061455a82615af7565b604082019050919050565b61456e81614fa5565b82525050565b61457d81614f97565b82525050565b61458c81614fc5565b82525050565b61459b81614fcf565b82525050565b6145aa81614fdf565b82525050565b60006145bc8285613fbc565b91506145c88284613fbc565b91508190509392505050565b60006145df826140e2565b91506145eb8285613f33565b6020820191506145fb8284613f33565b6020820191508190509392505050565b60006146168261442a565b9150819050919050565b60006020820190506146356000830184613f06565b92915050565b60006080820190506146506000830187613f06565b61465d6020830186613f06565b61466a6040830185614583565b818103606083015261467c8184613f4a565b905095945050505050565b600060208201905061469c6000830184613f15565b92915050565b60006080820190506146b76000830187613f24565b6146c46020830186613f06565b6146d160408301856145a1565b6146de60608301846145a1565b95945050505050565b600060a0820190506146fc6000830188613f24565b6147096020830187613f24565b6147166040830186613f24565b6147236060830185614583565b6147306080830184613f06565b9695505050505050565b600060808201905061474f6000830187613f24565b61475c60208301866145a1565b6147696040830185613f24565b6147766060830184613f24565b95945050505050565b600060208201905081810360008301526147998184613f83565b905092915050565b600060208201905081810360008301526147ba81613fed565b9050919050565b600060208201905081810360008301526147da81614010565b9050919050565b600060208201905081810360008301526147fa81614033565b9050919050565b6000602082019050818103600083015261481a81614056565b9050919050565b6000602082019050818103600083015261483a81614079565b9050919050565b6000602082019050818103600083015261485a8161409c565b9050919050565b6000602082019050818103600083015261487a816140bf565b9050919050565b6000602082019050818103600083015261489a81614105565b9050919050565b600060208201905081810360008301526148ba81614128565b9050919050565b600060208201905081810360008301526148da8161414b565b9050919050565b600060208201905081810360008301526148fa8161416e565b9050919050565b6000602082019050818103600083015261491a81614191565b9050919050565b6000602082019050818103600083015261493a816141b4565b9050919050565b6000602082019050818103600083015261495a816141d7565b9050919050565b6000602082019050818103600083015261497a816141fa565b9050919050565b6000602082019050818103600083015261499a8161421d565b9050919050565b600060208201905081810360008301526149ba81614240565b9050919050565b600060208201905081810360008301526149da81614263565b9050919050565b600060208201905081810360008301526149fa81614286565b9050919050565b60006020820190508181036000830152614a1a816142a9565b9050919050565b60006020820190508181036000830152614a3a816142cc565b9050919050565b60006020820190508181036000830152614a5a816142ef565b9050919050565b60006020820190508181036000830152614a7a81614312565b9050919050565b60006020820190508181036000830152614a9a81614335565b9050919050565b60006020820190508181036000830152614aba81614358565b9050919050565b60006020820190508181036000830152614ada8161437b565b9050919050565b60006020820190508181036000830152614afa8161439e565b9050919050565b60006020820190508181036000830152614b1a816143c1565b9050919050565b60006020820190508181036000830152614b3a816143e4565b9050919050565b60006020820190508181036000830152614b5a81614407565b9050919050565b60006020820190508181036000830152614b7a8161444d565b9050919050565b60006020820190508181036000830152614b9a81614470565b9050919050565b60006020820190508181036000830152614bba81614493565b9050919050565b60006020820190508181036000830152614bda816144b6565b9050919050565b60006020820190508181036000830152614bfa816144d9565b9050919050565b60006020820190508181036000830152614c1a816144fc565b9050919050565b60006020820190508181036000830152614c3a8161451f565b9050919050565b60006020820190508181036000830152614c5a81614542565b9050919050565b6000602082019050614c766000830184614583565b92915050565b600060a082019050614c9160008301886145a1565b614c9e6020830187614574565b614cab6040830186614592565b614cb86060830185614592565b614cc56080830184614565565b9695505050505050565b6000614cd9614cea565b9050614ce5828261508a565b919050565b6000604051905090565b600067ffffffffffffffff821115614d0f57614d0e6151cc565b5b614d18826151fb565b9050602081019050919050565b600067ffffffffffffffff821115614d4057614d3f6151cc565b5b614d49826151fb565b9050602081019050919050565b600081519050919050565b600081519050919050565b600082825260208201905092915050565b600081905092915050565b600082825260208201905092915050565b600081905092915050565b6000614daf82614f7b565b9150614dba83614f7b565b9250826fffffffffffffffffffffffffffffffff03821115614ddf57614dde61513f565b5b828201905092915050565b6000614df582614fc5565b9150614e0083614fc5565b9250827fffffffffffffffffffffffffffffffffffffffffffffffffffffffffffffffff03821115614e3557614e3461513f565b5b828201905092915050565b6000614e4b82614fc5565b9150614e5683614fc5565b925082614e6657614e6561516e565b5b828204905092915050565b6000614e7c82614fa5565b9150614e8783614fa5565b92508173ffffffffffffffffffffffffffffffffffffffff0483118215151615614eb457614eb361513f565b5b828202905092915050565b6000614eca82614fc5565b9150614ed583614fc5565b925082821015614ee857614ee761513f565b5b828203905092915050565b6000614efe82614fdf565b9150614f0983614fdf565b925082821015614f1c57614f1b61513f565b5b828203905092915050565b6000614f3282614fa5565b9050919050565b60008115159050919050565b6000819050919050565b60007fffffffff0000000000000000000000000000000000000000000000000000000082169050919050565b60006fffffffffffffffffffffffffffffffff82169050919050565b600061ffff82169050919050565b600073ffffffffffffffffffffffffffffffffffffffff82169050919050565b6000819050919050565b600063ffffffff82169050919050565b600060ff82169050919050565b82818337600083830152505050565b60005b83811015615019578082015181840152602081019050614ffe565b83811115615028576000848401525b50505050565b600061503982614fc5565b9150600082141561504d5761504c61513f565b5b600182039050919050565b6000600282049050600182168061507057607f821691505b602082108114156150845761508361519d565b5b50919050565b615093826151fb565b810181811067ffffffffffffffff821117156150b2576150b16151cc565b5b80604052505050565b60006150c682614fc5565b91507fffffffffffffffffffffffffffffffffffffffffffffffffffffffffffffffff8214156150f9576150f861513f565b5b600182019050919050565b6000819050919050565b600061511982614fc5565b915061512483614fc5565b9250826151345761513361516e565b5b828206905092915050565b7f4e487b7100000000000000000000000000000000000000000000000000000000600052601160045260246000fd5b7f4e487b7100000000000000000000000000000000000000000000000000000000600052601260045260246000fd5b7f4e487b7100000000000000000000000000000000000000000000000000000000600052602260045260246000fd5b7f4e487b7100000000000000000000000000000000000000000000000000000000600052604160045260246000fd5b6000601f19601f8301169050919050565b7f45434453413a20696e76616c6964207369676e61747572650000000000000000600082015250565b7f455243373231413a206f776e657220696e646578206f7574206f6620626f756e60008201527f6473000000000000000000000000000000000000000000000000000000000000602082015250565b7f53657420657863656564206d617820737570706c790000000000000000000000600082015250565b7f45434453413a20696e76616c6964207369676e6174757265206c656e67746800600082015250565b7f4f776e61626c653a206e6577206f776e657220697320746865207a65726f206160008201527f6464726573730000000000000000000000000000000000000000000000000000602082015250565b7f457863656564207374616765206d617820737570706c79000000000000000000600082015250565b7f455243373231413a206f776e657220717565727920666f72206e6f6e6578697360008201527f74656e7420746f6b656e00000000000000000000000000000000000000000000602082015250565b7f1901000000000000000000000000000000000000000000000000000000000000600082015250565b7f43616e6e6f742073657420746f2070726576696f757320737461676500000000600082015250565b7f455243373231413a20676c6f62616c20696e646578206f7574206f6620626f7560008201527f6e64730000000000000000000000000000000000000000000000000000000000602082015250565b7f455243373231413a207472616e7366657220746f20746865207a65726f20616460008201527f6472657373000000000000000000000000000000000000000000000000000000602082015250565b7f4e6f7420656e6f7567682066756e640000000000000000000000000000000000600082015250565b7f53616c6520616c726561647920656e6465640000000000000000000000000000600082015250565b7f5075626c6963206d696e74206e6f742073746172746564000000000000000000600082015250565b7f416464726573733a20756e61626c6520746f2073656e642076616c75652c207260008201527f6563697069656e74206d61792068617665207265766572746564000000000000602082015250565b7f45434453413a20696e76616c6964207369676e6174757265202773272076616c60008201527f7565000000000000000000000000000000000000000000000000000000000000602082015250565b7f416464726573733a20696e73756666696369656e742062616c616e6365000000600082015250565b7f53616c65206e6f74207374617274656400000000000000000000000000000000600082015250565b7f455243373231413a20617070726f76652063616c6c6572206973206e6f74206f60008201527f776e6572206e6f7220617070726f76656420666f7220616c6c00000000000000602082015250565b7f455243373231413a2062616c616e636520717565727920666f7220746865207a60008201527f65726f2061646472657373000000000000000000000000000000000000000000602082015250565b7f45434453413a20696e76616c6964207369676e6174757265202776272076616c60008201527f7565000000000000000000000000000000000000000000000000000000000000602082015250565b7f455243373231413a207472616e736665722066726f6d20696e636f727265637460008201527f206f776e65720000000000000000000000000000000000000000000000000000602082015250565b7f4f776e61626c653a2063616c6c6572206973206e6f7420746865206f776e6572600082015250565b7f45786365656420746f74616c20737570706c7900000000000000000000000000600082015250565b7f57726f6e67207374616765000000000000000000000000000000000000000000600082015250565b7f4552433732314d657461646174613a2055524920717565727920666f72206e6f60008201527f6e6578697374656e7420746f6b656e0000000000000000000000000000000000602082015250565b7f455243373231413a20617070726f766520746f2063616c6c6572000000000000600082015250565b7f455243373231413a207472616e736665722063616c6c6572206973206e6f742060008201527f6f776e6572206e6f7220617070726f7665640000000000000000000000000000602082015250565b7f4e6f7420656e6f7567682072656d61696e000000000000000000000000000000600082015250565b7f5369676e617475726520696e76616c6964206f7220756e617574686f72697a6560008201527f6400000000000000000000000000000000000000000000000000000000000000602082015250565b7f455243373231413a20617070726f76616c20746f2063757272656e74206f776e60008201527f6572000000000000000000000000000000000000000000000000000000000000602082015250565b50565b7f455243373231413a207175616e74697479206d7573742062652067726561746560008201527f7220300000000000000000000000000000000000000000000000000000000000602082015250565b7f455243373231413a207472616e7366657220746f206e6f6e204552433732315260008201527f6563656976657220696d706c656d656e74657200000000000000000000000000602082015250565b7f455243373231413a20746f6b656e20616c7265616479206d696e746564000000600082015250565b7f455243373231413a206d696e7420746f20746865207a65726f2061646472657360008201527f7300000000000000000000000000000000000000000000000000000000000000602082015250565b7f455243373231413a20756e61626c6520746f2067657420746f6b656e206f662060008201527f6f776e657220627920696e646578000000000000000000000000000000000000602082015250565b7f5075626c69632069732066696e616c2073746167650000000000000000000000600082015250565b7f4e6f7420656e6f7567682066756e6420746f206d696e74204e46540000000000600082015250565b7f455243373231413a20617070726f76656420717565727920666f72206e6f6e6560008201527f78697374656e7420746f6b656e00000000000000000000000000000000000000602082015250565b615b4f81614f27565b8114615b5a57600080fd5b50565b615b6681614f39565b8114615b7157600080fd5b50565b615b7d81614f4f565b8114615b8857600080fd5b50565b615b9481614f97565b8114615b9f57600080fd5b50565b615bab81614fa5565b8114615bb657600080fd5b50565b615bc281614fc5565b8114615bcd57600080fd5b50565b615bd981614fcf565b8114615be457600080fd5b50565b615bf081614fdf565b8114615bfb57600080fd5b5056fe68747470733a2f2f617277656176652e6e65742f41386e5077637a6e5a5348624162617243593232614268643674497430484351784c77796b6b6569666a73a264697066735822122070472e89b666934b020fb0ae42d1e05317fc0084839341f337431c1b9131780364736f6c63430008040033",
  "linkReferences": {},
  "deployedLinkReferences": {}
}